11X8RVT9 122 0035000002202200000000000007468798XXXXXXX00           0003839495XXXX19932S9Y5  27082004020409200486XXXXX494901        710294874AAA     0NLWDADY2272F8               R77A029J    6U1
11V84726 122 0035000002202200000000000008817258XXXXXXX98           0000457088XXXX19762LBSI  12062004722206200497XXXXX185101        757400879EEE     F80SGL5F0149JC               07ZK24A2    YSJ
113P1K97 122 0035000002202200000000000005439327XXXXXXX36           0009627081XXXX198723NYA  20112004O60112200472XXXXX465500        867239590AAA     CFZR2FCC5192IS               UCI1S6QL    CX0
11716JDX 122 0035000002202200000000000008356577XXXXXXX33           0000730687XXXX199125LV4  28092004620810200493XXXXX299002        982851002EEE     LOVIT7EX7036DF               406587LN    OA5
11WSV7TB 122 0035000002202200000000000003812454XXXXXXX56           0001093690XXXX197125TZB  1510200472281020049 XXXXX524403        588170403AAA     335NBGVJ1305Q5               H5X3XX59    25W
11326C8C 122 0035000002202200000000000001787249XXXXXXX23           0003128901XXXX19662GXAB  10022004O71103200464XXXXX173902        912902559AAA     J8MKZ6ZV364R32               90SSL802    J3S
11256MX1 122 0035000002202200000000000001529567XXXXXXX28           0009544892XXXX1999228T5  03122004671112200406XXXXX595706        219558410DDD     V1BCLZCH705F82               4XOEBMFC    C6H
119TN9QO 122 0035000002202200000000000008693112XXXXXXX18           0009088442XXXX19742M00A  30012004072902200406XXXXX352700        959462418DDD     45NAAN611417Y4               8AZ4QG56    WXW
11YXDL2G 122 0035000002202200000000000000024216XXXXXXX21           0004374668XXXX19722K11C  24122004840601200576XXXXX471305        123673356EEE     TJ4K8RCY502J6U               99M004P2    G9R
118GF37W 122 0035000002202200000000000002182215XXXXXXX04           0001317569XXXX19942Y99Z  28122004630301200561XXXXX295304        773129314AAA     YD2GU73Y870PX5               02L9DW6A    SF2
11M6RK1P 122 0035000002202200000000000005864561XXXXXXX66           0008139405XXXX19962I6O4  23112004N32212200401XXXXX202801        432770780EEE     1YBT8PX3474T09               4P14L8H0    AY1
11F4HTHW 122 0035000002202200000000000008510078XXXXXXX99           0004476771XXXX198428LWC  161020046R2910200484XXXXX416100        942377948DDD     0ONGFYRT625VZL               AS2C2C54    KMN
11I04ZVF 122 0035000002202200000000000004525376XXXXXXX02           0009242785XXXX19792O9AN  05042004822304200486XXXXX207205        730198915CCC     6YC2NJQY781J1L               39121335    5I1
113847ZD 122 0035000002202200000000000000443085XXXXXXX23           0005716426XXXX198026UEK  26062004671407200406XXXXX454305        299083634BBB     4G47M04T121NOS               29L435Y1    M47
11809UKK 122 0035000002202200000000000007513642XXXXXXX89           0004119090XXXX20052P8PK  281020047R3110200494XXXXX512201        325716896BBB     K8HDCNZZ26880K               T6L2P2JD    S3O
117CJW6Y 122 0035000002202200000000000000160006XXXXXXX82           0005022244XXXX197122V90  26052004O22705200402XXXXX479602        869921078EEE     2H386AQQ870R1H               23449M1W    750
11T79D17 122 0035000002202200000000000003719819XXXXXXX37           0004289633XXXX19872ACT4  11122004N10501200561XXXXX370501        981583813CCC     E1T5R21Q641161               PICG5U4U    YR9
1120O1ZO 122 0035000002202200000000000009387159XXXXXXX09           0003123049XXXX19772KZ28  26122004720201200562XXXXX444700        387144914CCC     POINE7O75278L2               2L347T02    HD2
11N6420G 122 0035000002202200000000000008642845XXXXXXX56           0004502090XXXX1990298P7  03012004612701200466XXXXX451304        146900603DDD     O5HFG9ZE495QN6               4BQ0M8S4    7X4
11EAJ9TP 122 0035000002202200000000000000516916XXXXXXX36           0002465842XXXX20032ID40  21052004871106200461XXXXX254105        332456779BBB     2VU00EAC89768C               W20A61U6    L9M
119B8PL5 122 0035000002202200000000000001104410XXXXXXX26           0001902660XXXX19942JN2R  21072004NR1108200401XXXXX525000        489755588EEE     4WFZKFZ719728S               RU1574AR    35Q
11LWE91A 122 0035000002202200000000000004174045XXXXXXX38           0000327475XXXX19632N23P  01072004631907200404XXXXX503906        325774615BBB     8IZ7DPCG079FMJ               KG524832    XU5
111F4T1L 122 0035000002202200000000000007059237XXXXXXX09           0001424046XXXX20052FH12  300720048R1008200403XXXXX264100        325767198EEE     Z063TSQH223JZ3               3DOVZ3D0    L3Y
11Q4OUQ6 122 0035000002202200000000000002258100XXXXXXX24           0009264016XXXX19892YHRQ  23022004NR090320049 XXXXX100000        403643655BBB     7CUOPNX32875XA               B8Z955A3    O35
118CD6TT 122 0035000002202200000000000002249977XXXXXXX64           0003539731XXXX197224SRW  10032004O6130320048 XXXXX393604        388862479BBB     EBEHJ91U198JPZ               C9S0D6J0    V7R
116APD2H 122 0035000002202200000000000009882248XXXXXXX58           0002506050XXXX19662J6G4  23112004O61312200461XXXXX201703        749303108BBB     VX9CGYBN209PD9               T47I8F96    0KU
1132D0LN 122 0035000002202200000000000006198304XXXXXXX50           0001331212XXXX1979255NW  27012004642202200407XXXXX481804        374725079AAA     L4L1O9GW101266               IY6HUO6N    L4K
116O97OR 122 0035000002202200000000000001037250XXXXXXX82           0007366955XXXX19912K0F2  22032004011704200483XXXXX129500        847324678AAA     7P4Y4LQE4675Q5               136I690X    1YF
111ZIS32 122 0035000002202200000000000004943185XXXXXXX61           0005856267XXXX19982BC63  190820046R0909200463XXXXX270201        352699787BBB     73F7OT6C56916S               0RI3X54P    695
11DX6JC2 122 0035000002202200000000000005927799XXXXXXX75           0008050290XXXX19902O216  21082004742708200483XXXXX270705        184132620EEE     UEZ6R4B893018X               6DHV276L    2FS
114NEPHI 122 0035000002202200000000000002474229XXXXXXX30           0000586334XXXX19912LC2E  13082004O31009200497XXXXX574004        762466777DDD     ECO9WVRC91972T               T0V22I10    1MW
117IFHS4 122 0035000002202200000000000003997780XXXXXXX35           0008538248XXXX199228PEX  21112004620112200484XXXXX205902        042702335AAA     AQLAV8WB99959P               L62REH12    J6H
11FGTQWK 122 0035000002202200000000000005377114XXXXXXX68           0002342863XXXX20042N2ZK  14122004622112200471XXXXX267705        968650537DDD     JNOW1VXJ676VAU               Z2H5J1PA    0ET
116XJ4ZZ 122 0035000002202200000000000007498681XXXXXXX23           0002677647XXXX2006221J7  06072004O11107200486XXXXX189605        478412970AAA     E8KPU0KV156544               QSF81O9X    DU5
114S5F88 122 0035000002202200000000000004332457XXXXXXX90           0002921558XXXX19972USC7  070420048 0305200473XXXXX209706        204183659AAA     4LA3EYOL737UX0               8L53G1HE    DLH
113T75D9 122 0035000002202200000000000006538975XXXXXXX22           0003717512XXXX19952L8KT  220620048R1307200486XXXXX243000        679364814EEE     KIXD4HE2336V03               4Z3I4202    34P
111UQ1TM 122 0035000002202200000000000007892391XXXXXXX40           0006247521XXXX1998219L4  18022004O41303200466XXXXX598502        415159003DDD     RNL4XILI807N44               47QB9IQ6    1Z3
11Q5F3QX 122 0035000002202200000000000009032431XXXXXXX46           0000659621XXXX19842WAU0  24072004832008200401XXXXX251702        914561204CCC     3AAX3KCA4037NI               7KSJ97N4    PVJ
11JQPJPQ 122 0035000002202200000000000000032829XXXXXXX53           0008865003XXXX19772EJU6  18062004662406200496XXXXX300205        312727606AAA     DVUSOEUP133F30               B6AU481B    UM1
111UL3I2 122 0035000002202200000000000006039068XXXXXXX40           0004116621XXXX20042RSVL  1609200472051020049 XXXXX367306        041912759DDD     CD9RPZV35977JH               4LR2O81E    F0X
110CFLGO 122 0035000002202200000000000002236175XXXXXXX66           0000606047XXXX19842ZMPJ  1708200403190820048 XXXXX375506        961029170CCC     0YVMW7RD1588Y2               EY07P103    DXN
1168C7HD 122 0035000002202200000000000003213114XXXXXXX70           0006065104XXXX19942JSXU  0103200461270320049 XXXXX233601        500904710AAA     TC43RC4T674YM7               AKXUDW96    X61
118AML72 122 0035000002202200000000000001949341XXXXXXX69           0005993234XXXX19862FT34  03032004840603200481XXXXX450100        410902407AAA     RJ0IA8KE523MO1               20788T8E    J95
115C8ZU6 122 0035000002202200000000000006722609XXXXXXX14           0001154990XXXX197323F2A  30112004632312200401XXXXX528000        336081077AAA     AM571AAQ8668J4               4SJA98W4    3F3
119D66RP 122 0035000002202200000000000005874043XXXXXXX42           0003721826XXXX19802P5TU  20022004031003200473XXXXX448204        660084609AAA     2D6KIPV5213N1W               08RG5L77    8NA
11H36A1J 122 0035000002202200000000000005002002XXXXXXX15           0007692133XXXX198725JZK  13032004662403200403XXXXX167800        751818773DDD     G0DWGH5Y651548               T9CR0G9G    046
11P64PSH 122 0035000002202200000000000000296014XXXXXXX73           0006975696XXXX19892Z785  07102004760910200487XXXXX363306        028049959AAA     3US46TCS560390               5J99OEG4    103
117N3H51 122 0035000002202200000000000004927654XXXXXXX16           0003557095XXXX19772FQ9X  13062004O12706200404XXXXX125002        419240887EEE     5HX5RVLE0684E2               E909540X    6SD
11165PXZ 122 0035000002202200000000000006773970XXXXXXX67           0004087401XXXX19912U4CY  01022004O 2702200484XXXXX563902        566449864BBB     UR2209WD635G2V               FC0595W8    8AO
118RTO93 122 0035000002202200000000000001429516XXXXXXX16           0003626123XXXX20052CS20  01072004O 2607200493XXXXX147705        635741875DDD     44NSEBK1528817               KJ5D0817    W9B
11R3X1CQ 122 0035000002202200000000000009973816XXXXXXX68           0008116946XXXX199125QVD  14062004831407200486XXXXX111204        209598939DDD     ANCM9R0O614H38               7X2W30SH    U2A
11802GQ2 122 0035000002202200000000000003007219XXXXXXX71           0007794504XXXX19912O1KZ  13012004711901200472XXXXX384600        035213944BBB     QCMRB5JC809698               16A75QQ2    8M4
110G1WOU 122 0035000002202200000000000006078839XXXXXXX47           0005710108XXXX199027ST3  09082004NR2408200464XXXXX410601        721367312EEE     Z90HL9HM70314J               16FRM27E    354
11PO2FRE 122 0035000002202200000000000008262170XXXXXXX03           0002203620XXXX19922S40L  22032004872403200403XXXXX490500        514752502DDD     BIVGFLDL208613               N84KHPE3    5S9
115ODOCB 122 0035000002202200000000000008191058XXXXXXX36           0008395793XXXX20052A4IR  05042004710405200461XXXXX351301        151178950CCC     06QPBSLS604204               BW69X886    I7V
113R0UKP 122 0035000002202200000000000009701758XXXXXXX52           0002726963XXXX199124XPU  06102004041410200481XXXXX268706        327760336BBB     3BD5AU4P544YC8               HZ019H6O    5Q7
11T8532S 122 0035000002202200000000000000274981XXXXXXX99           0000973414XXXX19872QQZY  28032004833003200484XXXXX538106        224517643CCC     8ZT1L17U635146               M5ZQ66RI    6CQ
11FGJ47J 122 0035000002202200000000000000773227XXXXXXX50           0008334069XXXX20022D4OU  17072004770608200403XXXXX196700        418833363DDD     I633RI9W902H60               5JQJ4OP8    DQ9
115451FR 122 0035000002202200000000000009014895XXXXXXX50           0008178085XXXX19932GLQ5  21112004062911200474XXXXX294101        390218255DDD     IPSCGIVH847SI2               RI8SWFC8    6O3
11BT72QN 122 0035000002202200000000000002230113XXXXXXX56           0003527457XXXX19832GTC2  11022004812902200494XXXXX111602        277658025BBB     BQ400IOW635CG8               381549F1    7VV
11N3ZRSI 122 0035000002202200000000000002171535XXXXXXX00           0004835661XXXX199323IFI  01102004N42910200494XXXXX342401        725174776EEE     8O4SWWLG08515S               C56574O5    QY9
118Y0P65 122 0035000002202200000000000003061188XXXXXXX81           0004339803XXXX197524LDB  28012004O 0802200481XXXXX553701        487099620DDD     8295ZWQM49109N               NOWE109S    8Z8
111A72OR 122 0035000002202200000000000006294487XXXXXXX98           0000569264XXXX19712FO8G  24032004610704200497XXXXX536903        558172506AAA     1P33OZ1P18117A               E3313R03    79E
11IT87EK 122 0035000002202200000000000008973936XXXXXXX77           0001864572XXXX1996283J4  25082004071209200461XXXXX475102        952430971CCC     A1916TFS3725Q4               78PRMLMT    9GS
11Q74SRX 122 0035000002202200000000000006910874XXXXXXX07           0008851493XXXX19792ZM55  22092004030710200496XXXXX523202        747475324DDD     70PDBUGG97758D               86945ONK    SU3
11JHXU90 122 0035000002202200000000000001851012XXXXXXX35           0009211027XXXX19972YK1O  07022004022702200497XXXXX367702        252699415EEE     SK4V05CT28137Y               W42W26AJ    GI9
111IBCVU 122 0035000002202200000000000004446198XXXXXXX46           0006977777XXXX1965238VE  01052004N30605200474XXXXX502102        969850385DDD     UNBEKHGO255260               5FLCTP60    SE1
11DODF5D 122 0035000002202200000000000009025920XXXXXXX32           0005806941XXXX19782P243  2508200461020920049 XXXXX498205        362739431EEE     M9HX43EG440HL2               W0SR0053    WVA
110Y199U 122 0035000002202200000000000003103274XXXXXXX27           0001167034XXXX1973240KW  29042004O61105200471XXXXX410505        566493172AAA     LKCC0E7W13465V               0PDVIW14    606
117EVAP6 122 0035000002202200000000000003857128XXXXXXX95           0002464953XXXX200220LOU  24022004061003200471XXXXX525303        018318749DDD     0HSZ83RM832M9U               GE71X489    0GU
110CS3LG 122 0035000002202200000000000003745150XXXXXXX52           0002450527XXXX19872B9QP  24052004840406200477XXXXX174905        620315667DDD     DBWBB0R392264L               7OYRM477    ME6
111M2COP 122 0035000002202200000000000000419539XXXXXXX05           0006260923XXXX198223G0W  08112004030812200403XXXXX233000        880162392DDD     Z0L9QARL7346LA               3L64B250    5ZX
114E7HVZ 122 0035000002202200000000000004612785XXXXXXX46           0004259667XXXX19972O5ZR  23122004O11401200594XXXXX485202        140717989AAA     86U0U1K186752X               42EH9830    0BG
11MI73Q3 122 0035000002202200000000000008216589XXXXXXX87           0005386374XXXX19872Y9ON  06072004N 040820048 XXXXX138502        216730789EEE     GR7HO4KR820AV3               6519445U    AAQ
11W6G43R 122 0035000002202200000000000005695233XXXXXXX13           0002151621XXXX1978295LG  10032004862603200464XXXXX317701        394259593BBB     OBUXOE6T8282TW               7YC48487    3Y7
11J8D2SK 122 0035000002202200000000000004004882XXXXXXX99           0006527848XXXX20002R1DD  01052004831705200484XXXXX394103        464940338BBB     HOZRYZJK3987CN               179Z408U    FQ4
11A28NVJ 122 0035000002202200000000000003847511XXXXXXX49           0005554218XXXX196720GSI  08082004N 0309200483XXXXX303703        619949178CCC     AVNEGB774385O2               A40RZ911    84V
112VF2NR 122 0035000002202200000000000001312622XXXXXXX76           0009418261XXXX1974243R5  18042004O61205200497XXXXX523303        087887285AAA     VG1JYIKS011089               0M3O7ZL8    0OP
1146680B 122 0035000002202200000000000000511639XXXXXXX37           0004032718XXXX20042JPY6  22102004O20711200471XXXXX262102        099975526CCC     OACMGGV0963I38               8G819930    8RY
11GY44SJ 122 0035000002202200000000000001406116XXXXXXX57           0005104525XXXX20002PIRM  29082004NR0309200494XXXXX509104        366327885EEE     03FJQ2A7819BYQ               49JL509B    6UB
11XF4B56 122 0035000002202200000000000001390702XXXXXXX67           0005768143XXXX198726MH7  30012004N31202200486XXXXX517103        617377898CCC     0B114ZUH56297Z               T188MW14    3EL
11Q654NB 122 0035000002202200000000000002975550XXXXXXX72           0007926865XXXX1994213MH  10012004772101200403XXXXX325001        969399050EEE     63N5SNAE083BW4               PSU6HHTJ    Y8B
11Y17K8V 122 0035000002202200000000000002343039XXXXXXX35           0007378841XXXX2006240HN  07032004N40204200406XXXXX347103        140045320BBB     45NSB6JV42926W               9X12W0T4    RP3
1126DV07 122 0035000002202200000000000006107625XXXXXXX76           0003837495XXXX20012C1U8  28082004012609200496XXXXX102401        343272724BBB     39I7BU3S044751               4P36691M    8GM
11BUUH1W 122 0035000002202200000000000007819953XXXXXXX27           0004995168XXXX19722E2SV  14032004641503200462XXXXX291803        218499221BBB     DY50Z27J083HX2               7XYJORFC    95R
11UAZ07M 122 0035000002202200000000000004901580XXXXXXX26           0005121241XXXX196723YOQ  24022004O 1303200472XXXXX229600        971637768AAA     N458ZAHG79424U               1USU72TK    KZM
115EZ7ET 122 0035000002202200000000000004663985XXXXXXX49           0006294509XXXX19832N0D2  13122004712812200486XXXXX113706        056188145CCC     83PVRUWI85968V               31KZ9I82    0B0
110CWI21 122 0035000002202200000000000002960254XXXXXXX80           0004075800XXXX200327HH7  10062004012006200466XXXXX298005        899306608BBB     E4WL6SVR39763U               SQ28H5Z5    M85
115JIU32 122 0035000002202200000000000005159621XXXXXXX93           0001488355XXXX19772Y91H  19062004070107200481XXXXX150201        315875486BBB     WKJ5XYY2296NCC               9N73XNOE    6M0
11F45DX5 122 0035000002202200000000000007938291XXXXXXX67           0004041869XXXX196529STE  21092004O31410200403XXXXX274303        981110643EEE     GUCX0Y6G38604G               U24W9R7Q    1M7
11187ROX 122 0035000002202200000000000007016025XXXXXXX75           0005521724XXXX19972S9P7  090120047R1801200471XXXXX288703        016326435BBB     N44ED6JY839AJ9               YOYNZU3S    DT1
11CFQY7C 122 0035000002202200000000000004153319XXXXXXX22           0004578118XXXX1965282YG  10062004741306200401XXXXX237204        488940240AAA     4O1O8YV8013763               1990EV55    HBG
11BEJQT1 122 0035000002202200000000000002891063XXXXXXX22           0002509529XXXX20062F1CI  20092004670810200492XXXXX508400        697577317CCC     S5QXHTFG10697N               FI9I8C97    L8W
1191XL5B 122 0035000002202200000000000009410444XXXXXXX51           0001521537XXXX200528FO0  22022004731203200407XXXXX559100        460877704AAA     5ERP73U3256161               8MTGK2F0    H7L
117GALOB 122 0035000002202200000000000001757514XXXXXXX73           0001638532XXXX20052A84B  23042004O60305200473XXXXX399906        848175406BBB     QWGA9PJD019P12               6052M1GG    8E3
11BT4WZZ 122 0035000002202200000000000002263720XXXXXXX33           0006654417XXXX19982S482  20022004662902200464XXXXX584702        060907337BBB     6IVAEJHM181534               184721E3    7WP
11C37NAX 122 0035000002202200000000000006190998XXXXXXX38           0005638635XXXX19972E1GB  08012004020502200407XXXXX283901        065514207BBB     0F7LEYTF255O7Z               3VK2ITE9    07P
11Z6S3UE 122 0035000002202200000000000005489012XXXXXXX35           0003181582XXXX19832HA74  12102004860111200474XXXXX300604        113142111CCC     FQ0XXWRI693STX               61S0D12L    H7A
11P8I2IP 122 0035000002202200000000000003049017XXXXXXX61           0000589072XXXX198729YVE  11082004O22908200486XXXXX445901        088912969BBB     ASC13QCU475J10               51EWP437    63D
11R5L93X 122 0035000002202200000000000005242886XXXXXXX80           0008108423XXXX20032FYR9  08022004O71802200483XXXXX391706        607437982BBB     WA6NA26F575DW4               O75C9231    889
11MGJXJ5 122 0035000002202200000000000007076474XXXXXXX85           0006659008XXXX1987206OL  22082004043108200477XXXXX195805        590529126CCC     D201649O90256V               1N7O5LW0    132
119ZZ229 122 0035000002202200000000000004447283XXXXXXX27           0007184950XXXX1978273OU  27092004721010200481XXXXX321706        070448186AAA     A4Y2QXO9828097               7D3B9MQ5    U7M
11AFJQ4X 122 0035000002202200000000000002768312XXXXXXX96           0004357654XXXX197025QM9  07052004O 2305200476XXXXX391401        134197609CCC     401DBN7W104534               C4105VGS    VRO
11O21VUO 122 0035000002202200000000000008916995XXXXXXX04           0006766892XXXX20032RDUI  25052004N42406200474XXXXX158906        719250945DDD     WVO7FXNU530O2Y               4TATGY56    D9M
11H17IB1 122 0035000002202200000000000006858936XXXXXXX05           0005604474XXXX19742TQNB  01012004670201200403XXXXX175204        397882146AAA     0UOY1MJM178IU4               D8F05273    Z6R
112FPV3D 122 0035000002202200000000000004817529XXXXXXX71           0004046797XXXX196726YOA  30032004722204200477XXXXX446601        975597224BBB     PCCFTIOT227B1V               W5H225H1    8AZ
110WZYCS 122 0035000002202200000000000007220522XXXXXXX96           0004119418XXXX19742TLZ5  20062004N2080720048 XXXXX182402        834395508BBB     V8AX2PGI807C8E               347SSY88    VDG
11K6VUJ1 122 0035000002202200000000000005169660XXXXXXX58           0004171066XXXX19662VT9W  25092004O11410200402XXXXX386300        632074474CCC     3FIZZS08836YKI               C7173J99    1HX
11E74Z1K 122 0035000002202200000000000001147175XXXXXXX78           0002185793XXXX200628ALJ  17062004022006200466XXXXX277506        158431983CCC     T2R3HBNN25990N               7YN4LR9L    5YL
115EQ20N 122 0035000002202200000000000000010655XXXXXXX66           0004454297XXXX19942BBBY  20092004OR0210200474XXXXX438306        390489413CCC     T2O43SD9048Q14               EH91DN8N    U5D
11U667F7 122 0035000002202200000000000001619830XXXXXXX73           0007973956XXXX199825DXR  02122004671412200497XXXXX404005        264112643EEE     03KBPKOP251081               N980AE3V    5N6
119P68DO 122 0035000002202200000000000005498135XXXXXXX02           0006103257XXXX200228083  24062004640307200402XXXXX591300        818611238AAA     GYMWBAH1939JYA               1WW73I82    6IQ
11G12VL7 122 0035000002202200000000000004477220XXXXXXX30           0001434656XXXX199320UVF  02102004N70111200494XXXXX182403        864140981DDD     L8YVFJCL462KH4               3336UCC2    4JV
11N90Z61 122 0035000002202200000000000003055393XXXXXXX44           0002149710XXXX19752BW5V  231120048 1212200494XXXXX502405        825734171AAA     B814EREO84193K               9M80XY75    DV8
11YOM9JC 122 0035000002202200000000000006027505XXXXXXX00           0009472087XXXX19862T3AF  22082004842408200494XXXXX432104        370036012CCC     18B4WE46189802               Q43TO305    2B4
117KJ8WK 122 0035000002202200000000000002096131XXXXXXX38           0008168756XXXX1989245WD  25052004611006200401XXXXX377701        573233602CCC     JFYD6OWS807IFP               OG21XMZ8    73Q
117D4C2X 122 0035000002202200000000000005794888XXXXXXX24           0006542085XXXX19952DT2J  03062004840906200481XXXXX265302        023606995DDD     MELJFRUF687LUV               GA027E8J    4KV
112NGPW2 122 0035000002202200000000000008995367XXXXXXX59           0003452538XXXX196425O9M  17052004010806200472XXXXX370301        364065105CCC     MJ5X0L5F3859J0               1T6R2REM    DWQ
11IPX0YL 122 0035000002202200000000000001526421XXXXXXX84           0004790244XXXX19742W6K5  01022004O 0103200473XXXXX339401        189919504BBB     MH8TUP563090YL               QS9TQF1T    7IK
11I61YX3 122 0035000002202200000000000004387361XXXXXXX28           0001418547XXXX198626909  25102004671911200401XXXXX451306        812328426CCC     2WY6FRUM310FIL               C5H495TP    S7N
11H9HU28 122 0035000002202200000000000006707347XXXXXXX53           0000033114XXXX196325XXF  020620048 2106200471XXXXX352801        966837783EEE     H8KQOTWQ56903U               2G40E1I8    GHP
11F9X639 122 0035000002202200000000000003646937XXXXXXX47           0006863422XXXX199924UJ7  23102004622410200494XXXXX276902        906395078AAA     B01BXSVU1613SG               44M25FG4    69F
11L4GUJS 122 0035000002202200000000000004172745XXXXXXX26           0000563363XXXX20032A80P  07042004O30305200402XXXXX461406        922927702AAA     932E2J52075341               9CH0OTZG    TK1
114YB29I 122 0035000002202200000000000006979277XXXXXXX71           0001242845XXXX199323P5Z  20122004060701200564XXXXX491205        866003571BBB     JP48XNXB63010Y               2ACP709C    38O
110STGSS 122 0035000002202200000000000005549101XXXXXXX10           0001597089XXXX19852OAXU  27012004021402200403XXXXX572300        240557769EEE     4HZA31GU8559IC               R86GB2Y6    YH1
117D94S1 122 0035000002202200000000000002912977XXXXXXX28           0007463707XXXX1967230JK  31122004N71701200577XXXXX391405        180199398AAA     34Q5Q04P86979A               C23007JF    4EN
11879N6J 122 0035000002202200000000000007920829XXXXXXX43           0005849484XXXX19692T25V  27072004012108200463XXXXX477200        216898978EEE     IGNFIQCA4862D4               GFRG926J    C3P
11L22TMJ 122 0035000002202200000000000002299158XXXXXXX60           0005608763XXXX19672RP72  07122004N3241220049 XXXXX492206        815705593AAA     CUUX0J2W7344N1               TI116NT3    R2G
1175A5KW 122 0035000002202200000000000006557802XXXXXXX28           0007572114XXXX19912UY0D  22052004N71206200487XXXXX139705        152617447BBB     K03PPXYE897H79               B0460D5Q    J3Q
1111HIC4 122 0035000002202200000000000005467178XXXXXXX02           0005109817XXXX199329H80  15052004730906200401XXXXX458704        065365658EEE     EFP8U5L110761M               F3C93804    4J1
11S853S7 122 0035000002202200000000000004401105XXXXXXX45           0009226760XXXX199320MIW  2502200403050320049 XXXXX294306        152166766EEE     8MAK3VD5169484               1Q6MC4EH    47B
11GQOB72 122 0035000002202200000000000000174363XXXXXXX24           0001638306XXXX19992H64S  23022004N62902200481XXXXX357802        759840969BBB     0EZU9XPP461YSG               12OY832C    X6U
11T5X2FP 122 0035000002202200000000000009074450XXXXXXX23           0000042134XXXX19912Z7SD  21052004060406200482XXXXX566500        700625529CCC     307T8TE9505605               YY67G1CH    C84
111E5L7P 122 0035000002202200000000000003965292XXXXXXX66           0004433007XXXX198528K62  09012004060802200494XXXXX315403        753875444AAA     BP9D4N1N3085Z6               1I74C7WE    3WK
11FR0HA9 122 0035000002202200000000000007757101XXXXXXX68           0000335959XXXX1994256QE  31102004N12211200486XXXXX562900        373190503CCC     26MALQ3Z139D2W               1AD8UO10    3UK
11QN57PZ 122 0035000002202200000000000003466467XXXXXXX27           0006563935XXXX19792VT4X  20102004011411200491XXXXX154003        768178935CCC     Z32CTPTF3763B3               RY8T1K13    FL0
11TF6P5H 122 0035000002202200000000000003367589XXXXXXX82           0004678450XXXX1995245A5  05112004N40212200484XXXXX184606        837575038DDD     616UTL34009786               GPM70Z07    L70
114A7FA2 122 0035000002202200000000000006130163XXXXXXX83           0009024882XXXX197422WR5  250620047R1207200473XXXXX151702        630184939CCC     9PDH7IUK5538GQ               3972D9Y1    T48
11E0HR8B 122 0035000002202200000000000001945094XXXXXXX97           0006697081XXXX196625J6V  16112004040212200493XXXXX156201        211839630AAA     R2Z0N5UY350Z6R               0A442D9A    7FT
111A3R1F 122 0035000002202200000000000007166131XXXXXXX40           0000579671XXXX20022ZL5H  28032004810504200487XXXXX246706        655464133DDD     0ZT6FCCR53904P               80MT56P4    A9H
1137LE8R 122 0035000002202200000000000005160737XXXXXXX17           0001809110XXXX20022T0J1  21122004740401200583XXXXX385404        692614434DDD     97FER5I35221N2               F9Y307KI    602
11J45M1Y 122 0035000002202200000000000006028701XXXXXXX26           0007714173XXXX19902VKM1  02062004772306200497XXXXX245200        183310273BBB     QGUQ0TTA112B5S               TDQR35ZE    6NF
11V5PBA4 122 0035000002202200000000000000094060XXXXXXX44           0006944720XXXX2003214NO  09112004760112200462XXXXX167304        036630220EEE     8YMA69N3270184               MYWSIPQ1    XZ4
1196CV63 122 0035000002202200000000000006318303XXXXXXX30           0007437239XXXX19822BZ7M  130420047R0505200406XXXXX498105        425832002AAA     9W87A7VB3867Q5               S405114U    UPB
11Y87FJC 122 0035000002202200000000000002992637XXXXXXX23           0009157551XXXX200328HST  250420048R1805200492XXXXX370404        654020978BBB     56U85E9W378Q47               K17791R5    8BT
11809R59 122 0035000002202200000000000009533718XXXXXXX74           0008684460XXXX1989296QY  29022004811703200407XXXXX408801        753220748EEE     2GAAORV9104CHH               0068S237    06S
11MD5HYO 122 0035000002202200000000000000538672XXXXXXX23           0005473996XXXX197926UQ3  27042004N32105200462XXXXX164203        375435554EEE     30YGTT7A699104               96940YR6    7IT
112YJPVB 122 0035000002202200000000000007167852XXXXXXX86           0005172060XXXX196623P8C  29062004040407200461XXXXX437204        198671221AAA     C0KO9XU5693E90               X54835IT    3X1
114TRM68 122 0035000002202200000000000004574681XXXXXXX60           0000183798XXXX19792F6N9  15032004N32303200491XXXXX309701        383308258BBB     E5CIBZZA274C93               0HB428H5    DF3
11X0NO74 122 0035000002202200000000000001002575XXXXXXX08           0008945311XXXX19722V7I5  080220048R1302200494XXXXX101603        298696331BBB     L712MGIN754R8Z               486J964R    UHF
11CVDT20 122 0035000002202200000000000006575731XXXXXXX79           0002395876XXXX19872J4Q7  131120047R2511200402XXXXX158804        797809245DDD     6YNKM1B01371O9               45TV0I31    4L0
119IYF5S 122 0035000002202200000000000005443086XXXXXXX93           0007335839XXXX198929WD3  11122004722412200474XXXXX498904        533546314CCC     HYY58SDH382VZ1               I5375UTG    W3U
114SLF1T 122 0035000002202200000000000002910715XXXXXXX25           0006252280XXXX19652U4FX  12032004O60704200484XXXXX584003        082425332EEE     0P8JPL9I780682               NW7P1137    53O
11CW20QY 122 0035000002202200000000000005918405XXXXXXX11           0004194950XXXX1988250JA  10112004070712200482XXXXX543404        257654396DDD     7IYO1MFJ278O6D               WY65WG28    FYO
110C2G7Z 122 0035000002202200000000000004643331XXXXXXX88           0008709753XXXX199320644  08032004831003200493XXXXX294704        693824303EEE     QP32V4QA4645LT               33R4402Q    4GQ
11Q220HS 122 0035000002202200000000000007917838XXXXXXX84           0004543822XXXX200323FGO  03062004012706200471XXXXX571501        309625030AAA     X1IDC2CL2301O9               R0YOFC72    6HJ
1159QC76 122 0035000002202200000000000009338235XXXXXXX57           0002096099XXXX200224MGM  15102004031411200497XXXXX363705        073065206DDD     3KU2LIQ408604X               47CIBA93    8MT
11618LEO 122 0035000002202200000000000007393115XXXXXXX48           0005487947XXXX196923IV9  02072004O 2507200474XXXXX496405        747424981AAA     BD0UAIXF539066               SCC9T3KU    PVJ
119K47DI 122 0035000002202200000000000003912669XXXXXXX67           0008535566XXXX1999213ZG  03092004O41809200477XXXXX569001        695273869DDD     TT64WYY0284U0S               A15006N4    8Z7
11501Q7W 122 0035000002202200000000000007135890XXXXXXX60           0008153669XXXX20012SL8H  21042004N62005200401XXXXX136902        361541484AAA     K4NR5P9G524IWO               59H8W0C4    34R
110E0MB1 122 0035000002202200000000000001481221XXXXXXX18           0003999384XXXX20032VDU7  20052004NR0806200496XXXXX191302        233103536CCC     H7Q1K72G705435               UP454P05    0MO
119Q9JXN 122 0035000002202200000000000000173390XXXXXXX75           0003553121XXXX19762GCW8  18012004730802200402XXXXX479603        251331630DDD     VZI643XR698388               2L8C05HL    YA9
119GY722 122 0035000002202200000000000008063817XXXXXXX83           0008009278XXXX200023R9P  26042004O40605200481XXXXX493903        931395627EEE     7ITBQVYX183U29               1589MOBF    TQ7
119RUPM2 122 0035000002202200000000000004634108XXXXXXX34           0007685003XXXX20052M05W  08092004010310200472XXXXX167902        304443642AAA     CPU9B0DJ629Y7J               2625IUE3    6PG
11J35MQY 122 0035000002202200000000000008925039XXXXXXX81           0001806881XXXX19682V775  10122004771612200402XXXXX430906        438906215CCC     1IWS1IFS780F85               E04W09Q6    CX2
11GG0CZN 122 0035000002202200000000000000332351XXXXXXX45           0007632271XXXX20002LYXA  26042004610205200473XXXXX398005        248755653CCC     9XEFDS6A22931D               9TQ50297    XZR
11386QHX 122 0035000002202200000000000008243290XXXXXXX35           0004887943XXXX1968282UN  10082004N31308200407XXXXX347701        670299146AAA     9A2FTQ6X556X9D               U94F3382    QF0
112ADW9I 122 0035000002202200000000000008126901XXXXXXX60           0004427099XXXX19732WHYN  27022004O62303200474XXXXX217201        896543786DDD     TY4HP0RX141TP5               F9L986DE    94B
11K939IR 122 0035000002202200000000000006207669XXXXXXX39           0005394738XXXX19942ZN8L  26092004810210200401XXXXX543904        779166494CCC     TOEMJIAE46426Z               D332Z4J9    9RV
11KDBHM0 122 0035000002202200000000000009282483XXXXXXX53           0008078529XXXX19772EZKP  130320040R0304200462XXXXX233000        476703321AAA     O2TT7W35800L34               88WJP7X7    5ZK
1185PL4V 122 0035000002202200000000000003532155XXXXXXX00           0004141679XXXX19862VJI4  08082004630209200477XXXXX164905        566635723DDD     UCVHDESJ1302YP               GYHM91GU    97Z
115S3HW6 122 0035000002202200000000000000904602XXXXXXX69           0008018279XXXX200020B39  12022004670703200403XXXXX253305        081846601DDD     NBVZ9YTD825XTJ               914Z9822    67F
11HG5FN4 122 0035000002202200000000000001907609XXXXXXX45           0007416721XXXX196325YSR  25092004NR0610200407XXXXX506800        128783402AAA     15GHLH20328T1Q               741A0MGS    7HC
11XIWTZM 122 0035000002202200000000000000842195XXXXXXX60           0002963131XXXX19742VOKP  28042004870805200473XXXXX478100        102043906DDD     KIYX26BJ36669J               044D6860    S3H
119SS8YR 122 0035000002202200000000000002625794XXXXXXX75           0006022234XXXX198525PTU  03102004642910200464XXXXX554606        446676971DDD     1LORPLKE538Y24               L2F9CK10    5S3
11H973M6 122 0035000002202200000000000007033735XXXXXXX12           0009732736XXXX19762BBV7  12102004O 2110200482XXXXX213201        095592584EEE     D2FOJJPS167W33               7239C839    21E
11L553AA 122 0035000002202200000000000002611848XXXXXXX08           0001462467XXXX19962FUGZ  20112004022411200482XXXXX135902        761718794CCC     4G1XHL3L422YV9               6387682I    68Q
11Z75H3I 122 0035000002202200000000000009259021XXXXXXX18           0004229841XXXX196427V1M  13072004O12207200464XXXXX165200        063007884BBB     E2I0O9HW515H7X               7J81W7IA    1M0
111T0R1F 122 0035000002202200000000000008307346XXXXXXX17           0007987422XXXX19962Q5C5  270320046R0404200462XXXXX282000        203165482EEE     K38PBT6A347CNZ               9N3B5689    F9C
116G00R9 122 0035000002202200000000000004306287XXXXXXX56           0009860025XXXX19782753S  240820046R2209200481XXXXX302501        769880906DDD     D336DXZX8277I5               32X57R57    N9P
1120OA07 122 0035000002202200000000000004448695XXXXXXX37           0008848870XXXX19842NR9F  18092004023009200461XXXXX452801        167988658AAA     KOJAJV52854977               H34XY70C    02W
11H4SAMT 122 0035000002202200000000000003167205XXXXXXX65           0009842405XXXX1972276AN  15072004O71408200492XXXXX561504        893240108CCC     4I337RUS25959N               MUS3V8R5    1Z0
11611RB2 122 0035000002202200000000000002681012XXXXXXX24           0005966601XXXX19832JJ3K  13022004O62502200404XXXXX490206        291598248DDD     ESSEXOAT651O0Y               2819115P    L5F
115Q6SIP 122 0035000002202200000000000006211187XXXXXXX19           0005970023XXXX197629HHJ  04062004762006200463XXXXX185505        716998257CCC     S8C7Q0TO3997T3               7KBRM86X    61H
11KHYIC0 122 0035000002202200000000000009629941XXXXXXX21           0006229319XXXX20052SN1P  140520048 1705200461XXXXX330103        994778337DDD     XDM8MDZX975JQ1               4PZHCU14    LH7
116TIU75 122 0035000002202200000000000004987707XXXXXXX47           0000284115XXXX19832DY90  23112004O12911200402XXXXX557506        031224830DDD     1FV17YIO239L2Y               ZW3P8Y15    0TV
116QD19C 122 0035000002202200000000000008027423XXXXXXX89           0006685292XXXX20002M9V7  10042005011104200572XXXXX140801        061561244AAA     433GN64T8353O5               1W8U5229    2YA
112VHZXL 122 0035000002202200000000000008793026XXXXXXX02           0002312663XXXX19742LF05  05092005843009200502XXXXX539306        593512076EEE     FCNULV7N070S89               QOT5UL6L    HK2
11GMWPU4 122 0035000002202200000000000006321533XXXXXXX02           0000788376XXXX198323NW7  30092005872910200574XXXXX496604        540759421EEE     96HLJYSO7828Y0               S226LUV5    N9Z
11MZN3XA 122 0035000002202200000000000004311300XXXXXXX31           0008865030XXXX19632GAU4  16052005631406200581XXXXX234100        928521422BBB     5J7UURJP4552VL               021Q0JY2    0M2
1180H8LT 122 0035000002202200000000000002723875XXXXXXX10           0008245985XXXX19832O54Y  16032005812403200577XXXXX352102        518209650DDD     67W8KZTS419402               UB6791L4    E3I
11U95R82 122 0035000002202200000000000006595107XXXXXXX05           0008220942XXXX19922Z6DF  03052005741605200563XXXXX529400        929352302DDD     PR9T7WVD308Z10               VT0BH368    E58
117Z6LLU 122 0035000002202200000000000009826127XXXXXXX55           0000357168XXXX196421FVL  09022005O71103200587XXXXX364302        170649295CCC     S9BZ2YI7822R5Q               EL13H165    IV3
116199AR 122 0035000002202200000000000002421614XXXXXXX14           0007991086XXXX1986281G6  25072005822408200577XXXXX399900        918412199EEE     530MMTQU6008F9               76T4M7K4    5JC
11AVCL5D 122 0035000002202200000000000006342398XXXXXXX64           0003853433XXXX200129CFX  21122005612612200504XXXXX273905        819474739CCC     50YNK37X8718LB               0W8L466I    1H3
112W9FJL 122 0035000002202200000000000008872303XXXXXXX13           0006935964XXXX19802E0VR  01092005772709200501XXXXX300102        410697393CCC     SY59JRUP235VOP               48GDFE3Z    X8M
11N423RS 122 0035000002202200000000000007018165XXXXXXX61           0002810235XXXX19742O1W8  15022005041602200503XXXXX370306        382936383AAA     MN3J69CL3113DS               4O72HCB1    V39
118ZT8B9 122 0035000002202200000000000002354492XXXXXXX25           0008501317XXXX197425AG0  07022005O71702200576XXXXX379804        705649704DDD     A2VE7EA7423W7P               J70P09DV    U01
11PD3PCI 122 0035000002202200000000000004598344XXXXXXX53           0000961667XXXX199020ZLA  24102005NR3110200577XXXXX155600        064334307DDD     7G7A8MU45039H2               KEEIEG35    VZ6
11QXX2ZW 122 0035000002202200000000000008860920XXXXXXX85           0007550202XXXX19902AM6Z  01042005641304200507XXXXX563900        440213564AAA     DCA4WMDL281664               9F34D87M    M6G
11Z70Q0D 122 0035000002202200000000000008848125XXXXXXX60           0008825251XXXX19862DSV9  23072005670608200563XXXXX478400        831683753CCC     09ZXNYLE8394M5               81A42X7G    V17
11609KWO 122 0035000002202200000000000006430488XXXXXXX27           0001621826XXXX1990244S4  18112005712111200594XXXXX451300        406099904AAA     42PP8ARG949546               6OC71HVR    X13
115K4DE1 122 0035000002202200000000000006363200XXXXXXX89           0003461231XXXX19722461Z  31012005020202200566XXXXX179701        413860377BBB     LK5820MA168K0P               T69LC223    VRN
11W3KFM2 122 0035000002202200000000000003121047XXXXXXX98           0006272522XXXX19712EPA7  07022005032302200576XXXXX476806        265614535BBB     HND1VEMZ299013               03VDF608    M5G
11FZHQ1W 122 0035000002202200000000000009405766XXXXXXX90           0005448931XXXX19882K3AF  09102005722510200562XXXXX147906        591465013CCC     EPY9FH3M834U37               44F61ZQP    16O
116X9GQM 122 0035000002202200000000000003033784XXXXXXX03           0001724811XXXX19672L1A2  2401200563280120058 XXXXX425702        230538101EEE     6JGFFFS97263UU               AQM72908    HV4
11572G1R 122 0035000002202200000000000008571491XXXXXXX68           0006369166XXXX19802FG41  18122005N40101200696XXXXX539606        722555005DDD     3TAG3DEW991EVX               09POZ5I2    B06
11SOHW81 122 0035000002202200000000000002740970XXXXXXX90           0008772724XXXX198221P4S  10082005N 0209200587XXXXX129903        728172795EEE     989SNMQT612Q15               UT5CQ7AI    ZSQ
11UDF9BG 122 0035000002202200000000000009925541XXXXXXX28           0004787573XXXX19792CI32  06032005N33103200596XXXXX240804        385634466DDD     5A5HF2DQ20487K               F36YG040    RJU
11AJNW1O 122 0035000002202200000000000001982580XXXXXXX64           0001923426XXXX19672H731  26052005832006200501XXXXX447406        887114829DDD     YKLW8IHN778XJ0               384I3BX1    0XC
11O659AT 122 0035000002202200000000000008976551XXXXXXX68           0008207926XXXX19842K94L  26022005N61903200502XXXXX130900        413013647AAA     8MXAVV3I048BD9               D2QW1467    26T
113N86SL 122 0035000002202200000000000000571485XXXXXXX32           0001620151XXXX20032Y7C9  06082005N62408200561XXXXX528600        221547270EEE     LI7M8UU475591D               V04ZJ153    59X
110QK0OX 122 0035000002202200000000000001753846XXXXXXX23           0005079796XXXX1990244I7  08052005N12605200564XXXXX481004        392987570BBB     D8LBHHA30534VB               L9K7IP90    7Z0
11A8KW94 122 0035000002202200000000000001883792XXXXXXX62           0008706042XXXX1986269KL  09082005040509200501XXXXX215000        183868399AAA     12BL4R16582FT8               X9EC1GK6    L95
11B31HDB 122 0035000002202200000000000005917561XXXXXXX58           0003666774XXXX19632Z74Q  04102005640311200583XXXXX529106        085936696AAA     QIJ62QYS471Y46               2FG1J482    44A
113P8XBX 122 0035000002202200000000000007476648XXXXXXX66           0003123707XXXX19632MH70  2310200581201120058 XXXXX438300        443720755BBB     R2B1TB0I980J16               6490Y7U2    9L3
113EW93E 122 0035000002202200000000000008109408XXXXXXX98           0009492001XXXX19792K6GD  04022005N72102200576XXXXX463203        782473592CCC     20KWXG2V943B18               G726B122    U9U
11528I1Z 122 0035000002202200000000000009482868XXXXXXX17           0002046763XXXX19892OX48  27022005632403200564XXXXX268505        478330210DDD     KP7TMWWC0467ND               98810S4P    98S
1103B6JE 122 0035000002202200000000000007380374XXXXXXX51           0000573540XXXX199929HQS  23072005O71208200591XXXXX393905        910264539EEE     9L46T1H534148W               VJO2OG20    RCT
11A49TNZ 122 0035000002202200000000000004688914XXXXXXX38           0005433920XXXX19812C1WL  20052005N43005200582XXXXX257001        295210256AAA     4SL8JII7385XSL               W4C14Q7T    Q1X
11GM7CER 122 0035000002202200000000000006946740XXXXXXX64           0000367455XXXX198022B8O  29062005071207200503XXXXX441005        585304736AAA     WOH8R14J010526               1UL980K5    MK7
1138LQEE 122 0035000002202200000000000007452759XXXXXXX67           0004924088XXXX19812M0EO  020520057R2805200587XXXXX534106        446194894BBB     4LSEDDRF481O4Z               VR80458A    U9N
118E7MV8 122 0035000002202200000000000004721228XXXXXXX20           0009582019XXXX19822YAM6  05102005N71610200563XXXXX524401        423277538DDD     WJSPYV3Z5175Z4               E92P7VQ1    MI5
113R774N 122 0035000002202200000000000002406290XXXXXXX95           0007412222XXXX197922MS3  17122005N7150120068 XXXXX525206        088962231EEE     1B0NQGV717959E               U04813EN    25Q
1154T0TI 122 0035000002202200000000000001441516XXXXXXX49           0007493246XXXX19692848Q  21102005773110200592XXXXX589306        542436236BBB     R6LZ3RFT858WD5               O21LFGY2    3M4
11906JMV 122 0035000002202200000000000006241897XXXXXXX50           0001145741XXXX200221T75  050720050R0707200573XXXXX176100        453814060DDD     ZAE09KFX710106               7ZAGHU90    D10
115752E0 122 0035000002202200000000000006449955XXXXXXX75           0000313586XXXX1972284TE  04072005832107200564XXXXX242305        287973031BBB     67S1K6ON092D5R               6R4A3J4M    TB7
11HS5LQY 122 0035000002202200000000000001242815XXXXXXX78           0003505316XXXX197626MYX  260620058 3006200566XXXXX316506        397887758DDD     71XWDPTN4435C4               GX662G46    FOP
1157UCG9 122 0035000002202200000000000009525909XXXXXXX51           0008946126XXXX19922O982  29072005861408200596XXXXX530800        436214769CCC     N2Q1ANQU079910               HN8PXYA3    C5C
11FD18RK 122 0035000002202200000000000001177534XXXXXXX64           0009004357XXXX19812F0UM  25112005772012200507XXXXX485500        612412117AAA     F80Q7PHR243385               2MR53408    5KF
11754PS4 122 0035000002202200000000000006718361XXXXXXX81           0009117422XXXX19892JX59  25062005NR1507200571XXXXX388301        753255047EEE     978ZCYFQ44631M               1Y5W2859    8YP
11G427WE 122 0035000002202200000000000003717760XXXXXXX76           0002594552XXXX198228EAD  230820057R2109200582XXXXX244203        839710419DDD     70EDDNHA869I8R               J5356296    AWE
11A8B97P 122 0035000002202200000000000003955258XXXXXXX35           0007604885XXXX19642W5I1  0509200582070920059 XXXXX502002        227266012AAA     6KPZZEDM480A84               0G1N8I95    9MA
1175P9YM 122 0035000002202200000000000007286562XXXXXXX38           0009865961XXXX19762X6M3  23062005O 1207200584XXXXX187601        656159884BBB     DT234VH4379948               252CTALN    90Z
11N35PLT 122 0035000002202200000000000001982714XXXXXXX69           0006522189XXXX1996205OO  29032005N62004200577XXXXX382701        881778510BBB     RHIFTVLD803RV5               8TN7095D    LX2
11MQ7QU5 122 0035000002202200000000000000741524XXXXXXX99           0007274138XXXX20052S9Z4  19112005O30212200587XXXXX410603        003311989DDD     U9FLTXH5101492               0J4O1400    X3U
11RH00DJ 122 0035000002202200000000000005418481XXXXXXX14           0000230844XXXX19822578K  04092005O20509200593XXXXX486504        854126788AAA     TGI6MFWZ05349A               94Z58VDG    970
114X64XI 122 0035000002202200000000000003471684XXXXXXX89           0005465410XXXX199724TE7  24112005611112200562XXXXX417003        226947425BBB     VFCSC0AJ4549G9               PAECU684    BQ2
111JVR50 122 0035000002202200000000000004124339XXXXXXX52           0005154137XXXX19682C02P  20102005OR2410200501XXXXX132601        483580866EEE     L1UO291Z035P8R               H3D3J0F9    KO1
119AA6SI 122 0035000002202200000000000007459629XXXXXXX69           0006327154XXXX19982B2H6  15102005010711200582XXXXX542800        774644437DDD     BN0Q6L5Y320R12               2O1X333G    ORA
1185G444 122 0035000002202200000000000001467692XXXXXXX59           0005195459XXXX199021TFQ  130320058 2903200502XXXXX416101        321368729DDD     FSZ71HVA765KHU               4U7XS5UR    3UC
11RS08I3 122 0035000002202200000000000005692516XXXXXXX78           0000266745XXXX1985299BI  17022005770803200503XXXXX369905        610470783BBB     5MKVIYNJ674749               2041Z9IP    WEU
1178EITD 122 0035000002202200000000000002441153XXXXXXX49           0007828160XXXX19702OJY6  041020058 2710200562XXXXX139803        637191435CCC     K89WYF9R1340DG               406QTT4E    G1S
115P211L 122 0035000002202200000000000007361372XXXXXXX20           0004901706XXXX198828RAM  05042005832004200587XXXXX405003        869173839BBB     LKXPWF9P470341               ODE1452T    FT0
11AD3OVK 122 0035000002202200000000000009767064XXXXXXX39           0002198950XXXX19812687C  13072005660808200594XXXXX274905        175693714EEE     EP8Q8USX837UV6               780BS287    WQ5
111HUSUY 122 0035000002202200000000000002555548XXXXXXX38           0001609694XXXX19882RU3M  02072005OR0507200503XXXXX565400        020020145AAA     KITKO84S3650Y2               AG1TF4Y9    W9F
11QN1RG2 122 0035000002202200000000000000721264XXXXXXX80           0001753639XXXX199121H32  03032005N40803200597XXXXX270601        949098622CCC     RO9TQT3L432252               796RYYN1    7HY
118V86JC 122 0035000002202200000000000001654033XXXXXXX04           0004626330XXXX19652HHM9  28022005N21203200577XXXXX245802        915000157BBB     S8WPQ9H0673ABL               Q2J0587H    RZ4
11295HXL 122 0035000002202200000000000001161818XXXXXXX94           0006917814XXXX1995222MZ  09102005722110200594XXXXX476200        296299234AAA     SGUDJV2M088A2Q               EG22Z7V2    J1U
11279QJ9 122 0035000002202200000000000000419830XXXXXXX73           0009019304XXXX200426S8Z  05072005073007200597XXXXX126501        106985311DDD     PFC1IYP2991344               908527UN    3X4
113555GO 122 0035000002202200000000000004181713XXXXXXX63           0001767357XXXX200324P21  17112005N12911200501XXXXX561506        520495215EEE     T890MRYA292384               RZ5A46Q6    AJP
11X1DV7R 122 0035000002202200000000000001716428XXXXXXX16           0008055242XXXX19702IO1C  12102005640411200502XXXXX533802        889704252DDD     82VKEBM428686T               12TS04I9    12W
116YX85U 122 0035000002202200000000000003918194XXXXXXX65           0006709276XXXX196422SYN  09042005O20605200587XXXXX546106        988869277CCC     YY9ZM7JL307H28               45GNA1O7    AT5
11L7A072 122 0035000002202200000000000003361417XXXXXXX44           0007731992XXXX19982RFZV  10102005842410200573XXXXX237705        593153816BBB     40058CDV507O1C               ZE7O92P8    TKT
11N5FYD7 122 0035000002202200000000000007415139XXXXXXX71           0003288163XXXX198023G9O  20122005860801200684XXXXX179906        140979499DDD     B86OMI0O216840               03W923Q1    E41
11VR9DH9 122 0035000002202200000000000009317124XXXXXXX39           0001229191XXXX19782F1UM  18102005710311200591XXXXX450003        190680422BBB     OOS1URWH668ZF4               4SL9EHB3    240
118ZU6KT 122 0035000002202200000000000007974658XXXXXXX74           0001297931XXXX20062BH0O  21052005710406200507XXXXX210801        618996483AAA     QWB094XG3909RW               Z2408W67    4GU
118SG4C0 122 0035000002202200000000000007139678XXXXXXX93           0007380159XXXX19862WY78  12112005N61711200507XXXXX310800        116537959BBB     HUZVHUZK699686               3VH129GQ    4VV
116255VF 122 0035000002202200000000000002872214XXXXXXX98           0004165332XXXX1996256NO  181220050R2212200504XXXXX302003        700519065DDD     OR74D1TM9231LX               D49LTOB2    J9O
11TIRK5U 122 0035000002202200000000000005357763XXXXXXX32           0007050187XXXX19862FV4E  12062005OR0907200593XXXXX593702        511965637DDD     33T91AH5181XP6               791FH400    R4W
1109815E 122 0035000002202200000000000001799358XXXXXXX03           0000119291XXXX199820J71  19082005021309200573XXXXX194103        868537347AAA     BJ6D68XA1885OG               345JD971    817
11P99LW9 122 0035000002202200000000000007230847XXXXXXX57           0005446325XXXX20002L65X  26072005073007200502XXXXX370804        701745840DDD     3KZT2OAA0930A8               V1KH310H    UHD
11K3R8JY 122 0035000002202200000000000000153746XXXXXXX87           0002267099XXXX199323ODS  18112005030112200504XXXXX574603        008272795EEE     GS029G5Q755N62               174E4DCF    7A4
11CP71Q2 122 0035000002202200000000000007036250XXXXXXX46           0005535477XXXX19982V4VT  28022005662903200586XXXXX521403        305314741EEE     O51KBENF027533               K8D80HP5    A1D
113QBWY3 122 0035000002202200000000000003168279XXXXXXX28           0001316896XXXX19892E7HL  26022005N12803200572XXXXX475903        508558620AAA     IKQBX3VP971KN4               E03891S3    3BH
11F78F7T 122 0035000002202200000000000002589943XXXXXXX58           0001453501XXXX198820FK3  26052005O22406200566XXXXX113602        960994311AAA     N75VA8TD533BOJ               988R345G    RZ3
114U93JZ 122 0035000002202200000000000007288540XXXXXXX01           0009892938XXXX19992AV29  09122005721012200587XXXXX454004        145198239BBB     XJYLE5IY437Y28               2O927AJ7    15M
114X54PM 122 0035000002202200000000000007754312XXXXXXX81           0006302050XXXX1987266R2  11042005643004200561XXXXX526204        947515720AAA     W8ML7ALW0865W4               K448Q46O    K0B
11FK87BZ 122 0035000002202200000000000006200241XXXXXXX94           0008495338XXXX19852JI4P  03102005873110200576XXXXX172700        067601567BBB     RDZ4OL63035424               E37LT04A    GQU
11L9JHGU 122 0035000002202200000000000009808061XXXXXXX89           0005082949XXXX19962A1VR  17122005811301200687XXXXX498805        467398014EEE     LV84S5GP39015E               YX45U751    I5T
115T9OGO 122 0035000002202200000000000001532574XXXXXXX61           0007666197XXXX2001206NU  04052005641905200577XXXXX242105        373615930EEE     2VTK5CP5149AI4               QY71M2T3    GT6
11WIIRLI 122 0035000002202200000000000006258157XXXXXXX70           0001502209XXXX19672W9UP  25092005OR1610200503XXXXX270305        022132546DDD     Q02IPUQ7170Z85               37EOQX18    7KZ
1153MQY8 122 0035000002202200000000000004970945XXXXXXX78           0003921595XXXX19812UCI0  25022005711903200583XXXXX277203        334184738DDD     C4V785ZU1212H3               FVIA740W    813
11271FYN 122 0035000002202200000000000002327252XXXXXXX68           0004636643XXXX19862B2GX  30082005670109200503XXXXX505405        249721502BBB     7EI6VLV307451D               LSL71T8R    T50
116U9E16 122 0035000002202200000000000009443853XXXXXXX94           0009251354XXXX19682TK3A  08082005671508200566XXXXX197101        109006595EEE     Q72SZTAV672DI0               2MC6GO9V    58Y
11P84459 122 0035000002202200000000000003287852XXXXXXX60           0008005501XXXX19922ZNW3  27092005870110200584XXXXX218302        484126673EEE     7EHYZEH16322VF               1M62FB1J    HZ3
119E2Y0Z 122 0035000002202200000000000000866032XXXXXXX74           0000323852XXXX196624032  0807200507030820059 XXXXX344105        852921297CCC     HQC193ZR081E53               6IV9349O    IML
11D4K24I 122 0035000002202200000000000000580016XXXXXXX07           0009319566XXXX19972DH9G  06092005832109200596XXXXX496700        537259191BBB     682QSF3L109PV7               234UZ9ES    9FK
112RC4CT 122 0035000002202200000000000006618659XXXXXXX60           0009317347XXXX19962G133  01072005620207200502XXXXX134200        232875431CCC     0CIRAHXJ055N2Z               241K4R89    AYH
116RM5NO 122 0035000002202200000000000000064080XXXXXXX65           0004419941XXXX198627TE3  19032005O73103200592XXXXX502000        991062707AAA     DXVG5OYZ2543AZ               5YA78M3G    597
111UD6C6 122 0035000002202200000000000004684287XXXXXXX31           0006262697XXXX2003228TE  09022005671902200566XXXXX396202        514810344AAA     XXQIM3UC966N33               0BG9822Y    2LA
113ZZHPR 122 0035000002202200000000000005784551XXXXXXX29           0006243483XXXX19892861G  30102005OR1111200567XXXXX224403        142105935BBB     ER8704WV242727               87C5767Y    25G
1184R63L 122 0035000002202200000000000005546437XXXXXXX23           0008413117XXXX1969261FL  20102005O40311200501XXXXX448101        294368422EEE     K0QVFOAA766Q58               31B15357    DXJ
113JDKJ3 122 0035000002202200000000000006023291XXXXXXX57           0002966576XXXX199922KTH  300620056R2607200572XXXXX404000        089046462EEE     VUIQD4VP191587               59728W44    3UM
1164I3R1 122 0035000002202200000000000006530367XXXXXXX89           0006856380XXXX19842M59X  27022005N 0803200566XXXXX326904        817121177AAA     F4Z33ZRH515QS9               BA0D2W03    7IQ
11V8BS9L 122 0035000002202200000000000001584751XXXXXXX15           0003462214XXXX199928SI0  08082005720309200562XXXXX321500        808238443EEE     QM3ZAUCK412F2B               02H4VZN7    KB4
115OW6QZ 122 0035000002202200000000000003564980XXXXXXX96           0009231094XXXX197021U79  12102005O42410200566XXXXX582600        906210183BBB     VB4H6PNG781A6L               JILJF0D3    1CE
1104R0PA 122 0035000002202200000000000002666189XXXXXXX45           0008257446XXXX1997206RN  21082005831709200582XXXXX551301        843531223EEE     VF50YPXX572701               3W31158M    HS8
11ZM8BLF 122 0035000002202200000000000000913739XXXXXXX48           0009729083XXXX19672AM8E  01112005732111200597XXXXX140303        376957776EEE     S8US22YH494305               9393H676    M6H
11IO2PRF 122 0035000002202200000000000001165756XXXXXXX49           0007220668XXXX19842GR1A  07022005032402200581XXXXX398206        064473843AAA     RHVFIC4V737S18               3I40KKSC    F8R
11W76BVW 122 0035000002202200000000000000246554XXXXXXX50           0002531351XXXX19822T45G  09122005O31212200583XXXXX205700        554229946DDD     9IF1YWBD961UX9               IA5Z5197    04P
11J42UHQ 122 0035000002202200000000000001327822XXXXXXX57           0009397431XXXX19972PO56  18072005N22007200504XXXXX421903        673302064AAA     PMXCZUP2704I2C               1U3O32I6    YQ0
11Y83WDE 122 0035000002202200000000000008465196XXXXXXX06           0007347581XXXX19642F3V6  05042005641704200502XXXXX270900        421198981AAA     97FBACAT0276OC               6CK2A510    93O
11Q1Q4V5 122 0035000002202200000000000009076372XXXXXXX53           0001278979XXXX199224NPV  16052005O 0406200566XXXXX302805        571537617AAA     BS628PWK09996R               0H73NI78    6PB
11H53C3S 122 0035000002202200000000000002258285XXXXXXX59           0008987007XXXX196627F4C  21082005011909200504XXXXX489601        446443747DDD     41BZT12C640X9Y               24956053    RM9
1125TAV1 122 0035000002202200000000000000804780XXXXXXX35           0005569541XXXX1999217EK  22112005611312200587XXXXX319605        247092731BBB     Y3FKXNHO1366X5               A133240R    Z0J
1134JGR7 122 0035000002202200000000000005114974XXXXXXX56           0001638589XXXX19672JT0B  19082005713108200574XXXXX374506        583705755EEE     B6RFEF97475M30               2MPI39A1    2DI
1129M3L3 122 0035000002202200000000000003546468XXXXXXX87           0008505398XXXX198225B6I  11032005N61203200507XXXXX340700        650738510DDD     2HPZPE04264ZD0               1E0OW46N    R4X
11O754SM 122 0035000002202200000000000005927782XXXXXXX70           0006769782XXXX1964258WI  03092005010409200593XXXXX293002        024341425DDD     2FTFV6JF7585QB               187ESHWY    U71
11W4NZU2 122 0035000002202200000000000001956153XXXXXXX01           0002818132XXXX197324UBK  19082005741609200566XXXXX142102        909273574AAA     8WYXPSSA625B81               PW7290PE    M1J
11DM22P4 122 0035000002202200000000000006314731XXXXXXX74           0003403991XXXX19742MB60  24042005741505200504XXXXX150802        233093563CCC     YK51UMOG89869K               SJ5NQ8HJ    9K8
1167ZQ39 122 0035000002202200000000000004181025XXXXXXX78           0008163942XXXX19732TOQ2  24012005NR160220059 XXXXX358900        601567255AAA     ISH6TWIM805027               U21D63VV    9V9
11YTD4X4 122 0035000002202200000000000006201622XXXXXXX06           0005011363XXXX19892ZT85  06012005661701200584XXXXX568504        261167392AAA     CQTFHWHD78662J               2E5RLP6M    059
11WEAYFD 122 0035000002202200000000000007085191XXXXXXX97           0006036914XXXX1990212VU  1511200563241120059 XXXXX473506        644858338EEE     5AG0WQ8E1196M7               35Z7KMH0    1AN
1137A6D4 122 0035000002202200000000000003726306XXXXXXX29           0008658836XXXX196923JAB  18022005621003200563XXXXX466903        409704323BBB     F9RVC21Q933DZ1               MV08U8U5    W2E
1122ZQC2 122 0035000002202200000000000006620421XXXXXXX69           0000776564XXXX2002207AF  2804200562010520059 XXXXX249605        947373571CCC     SAX5UQBC127L5E               K1S49Y26    81D
11T5WA0A 122 0035000002202200000000000009618445XXXXXXX00           0004543812XXXX19992GFQ7  19082005821309200596XXXXX544201        584879133CCC     J3WDCPON74033D               TQ1LK06C    BAZ
11UP1H74 122 0035000002202200000000000008587906XXXXXXX56           0003734386XXXX197425YLQ  151020058 2710200576XXXXX522802        040312637DDD     2CQ99NMM73576M               B428229G    67T
11B2Y0OJ 122 0035000002202200000000000008824946XXXXXXX61           0001648404XXXX19752I7B8  13122005O70301200663XXXXX529100        848229604CCC     P9B10HZ8782FQG               1SC32N85    156
11V8FXJX 122 0035000002202200000000000000034544XXXXXXX46           0005522892XXXX19872XT76  15092005O61410200506XXXXX542306        873562899AAA     6FIORXQJ606QYW               82091T70    6TR
11W4M8JN 122 0035000002202200000000000001552634XXXXXXX13           0009768877XXXX20032F6BX  25022005030903200571XXXXX258702        941129052EEE     TIG9YO3D9027D6               47G912K6    F28
1106I6XZ 122 0035000002202200000000000007785149XXXXXXX94           0007403601XXXX19752B6XQ  14072005O21607200507XXXXX415500        109726111AAA     55VHYCFQ370O52               NY2TI5PP    DOQ
11G11WAL 122 0035000002202200000000000004568294XXXXXXX76           0009722106XXXX19842JV0W  23052005871106200593XXXXX479404        513882384AAA     KKV4QBNT042542               0K06445B    G50
116VL7KK 122 0035000002202200000000000002864886XXXXXXX99           0002454056XXXX19902ZVO4  22022005811403200574XXXXX523002        691613787DDD     AFN10SCF380X81               Y0H12A80    2MF
11Y7W0RY 122 0035000002202200000000000002192879XXXXXXX57           0009134693XXXX19702677W  22122005831201200667XXXXX370205        886041827DDD     AT3BRJN5103N17               P4B5YM67    2W8
115CX7HZ 122 0035000002202200000000000009331876XXXXXXX84           0008478125XXXX19912Q5H1  20042005020805200593XXXXX243303        377986856EEE     NKI0NOOE8114E3               UKS37YI3    L8K
119J6UJV 122 0035000002202200000000000000675737XXXXXXX55           0004247302XXXX199527P9C  20082005N60909200507XXXXX389703        837973141AAA     I6JXWHWO0052LF               A5T27U2U    2YT
11XQXUA6 122 0035000002202200000000000006235989XXXXXXX43           0005158166XXXX1996280BN  09082005OR2808200576XXXXX218601        028365763EEE     62OV6QUD670278               85FX5U54    8JG
110GUZMM 122 0035000002202200000000000000384533XXXXXXX42           0007074056XXXX20032F671  09042005810405200577XXXXX204404        091445772EEE     QF60NTID3216MF               6HZ8A4G7    947
1143E22K 122 0035000002202200000000000000857509XXXXXXX59           0006824180XXXX19772P0HJ  24032005671004200591XXXXX471802        363129849AAA     IK470KXC9461I2               16W237H4    U4O
11NCL3FX 122 0035000002202200000000000009993245XXXXXXX17           0003787862XXXX19752290B  280920057R2610200576XXXXX110802        359902404AAA     E3PUY91I090785               7U8M9Z1T    B8B
11TY8NV7 122 0035000002202200000000000002622171XXXXXXX14           0000759679XXXX19832W2EY  29012005810402200594XXXXX137906        288478103BBB     N79FSP0R8587C8               510SY98R    V3X
11L46H53 122 0035000002202200000000000007204093XXXXXXX02           0005322688XXXX19932G93S  06012005671801200584XXXXX101002        973742568EEE     7HNPO8VY5412Q9               D85396DO    LAK
11IX5D71 122 0035000002202200000000000000131428XXXXXXX14           0005885084XXXX197020FCI  07042005660605200566XXXXX129606        148790228CCC     MI0ONTYT001FS8               2387Y43O    T12
11096N0H 122 0035000002202200000000000002821463XXXXXXX63           0002777649XXXX199620OUL  18012005720802200507XXXXX499304        211772019CCC     Q7F45XF3842654               8HQ23DGE    SGX
113NHH0F 122 0035000002202200000000000006865816XXXXXXX12           0002822605XXXX19702845L  02072005070407200581XXXXX133105        968111966DDD     YRCNEX3224237E               OK6387DD    2OE
110C04UO 122 0035000002202200000000000001302642XXXXXXX32           0009455519XXXX20052929X  21082005721609200506XXXXX300506        867543988AAA     2OO22TLH206D0Y               92C21B43    4YO
115XNJI4 122 0035000002202200000000000002425675XXXXXXX61           0006649567XXXX19822B01B  02092005OR2909200567XXXXX319904        447599148EEE     Z0C3VO5L32150H               U686M0B9    7Y2
1149HTBB 122 0035000002202200000000000001654904XXXXXXX47           0002221019XXXX19932A2D0  08082005741808200587XXXXX491602        683458193CCC     GIXFURTP443NF5               8H3037HG    A9P
11WVKX0W 122 0035000002202200000000000004688247XXXXXXX11           0005024111XXXX200420OJ8  11032005N 1703200504XXXXX304606        168894554EEE     RS52P6B4523403               76P683L2    6E7
1109U5Q9 122 0035000002202200000000000004460519XXXXXXX31           0006246858XXXX196525MV4  05082005761308200596XXXXX489504        373565637CCC     QIIE1L7W205290               F1158Z30    4EO
11UT93D4 122 0035000002202200000000000009504653XXXXXXX78           0005296474XXXX19782Y2LM  11072005O10408200596XXXXX214803        872500640CCC     YWW6R9TB247160               E3FFTLGO    K61
110UG6BV 122 0035000002202200000000000007660249XXXXXXX00           0009436147XXXX199225IHP  30012005O70402200597XXXXX228104        708929817EEE     DSLYCR574981MA               H91S0129    9XP
11GM0D6L 122 0035000002202200000000000005815775XXXXXXX14           0005904804XXXX198526Z1A  16092005821809200504XXXXX182003        833465576BBB     RDJADMCU006691               960P5P51    NEV
11Q8ONO6 122 0035000002202200000000000009236962XXXXXXX63           0008516549XXXX19802HBTK  20012005OR180220058 XXXXX113304        466756371AAA     8FZZKGBZ368B58               9G250533    4K6
11HY8X46 122 0035000002202200000000000009353025XXXXXXX54           0000899827XXXX19972K97Y  28102005610411200567XXXXX120103        126724823BBB     FCFZHRW0393U6F               L093E99P    FI8
11O1667Y 122 0035000002202200000000000001724678XXXXXXX99           0004740688XXXX198028EJS  300620056R2307200563XXXXX536501        026257641BBB     HORNH1JZ60020C               2875DC2I    99I
114V1349 122 0035000002202200000000000000678758XXXXXXX43           0003412097XXXX19872CT8L  0704200503240420059 XXXXX401002        389625147EEE     JA97BDM83937PC               8L4H75K5    O4X
11A415E1 122 0035000002202200000000000006591534XXXXXXX02           0008938483XXXX19942P3QS  19092005OR2009200502XXXXX118401        629075268CCC     GNNU1TVE4561HI               SXA85L6K    5V7
114EO7IX 122 0035000002202200000000000009258340XXXXXXX70           0004005106XXXX20032T6KM  18082005640309200563XXXXX232805        791286420AAA     X53E3IGP015QM4               8V36P6K1    CJ6
114FKITG 122 0035000002202200000000000007096693XXXXXXX19           0009751930XXXX19682CX4G  03112005621011200563XXXXX440206        449911908BBB     RV8Y2ODG6944F0               3OHQ4887    16V
114PYYN8 122 0035000002202200000000000002531815XXXXXXX52           0002828350XXXX198720K92  30052005O62606200562XXXXX362603        950852874EEE     X5IYFBJ993736U               549F1SWW    A20
11597F3W 122 0035000002202200000000000001854587XXXXXXX88           0003657720XXXX19732Z8B7  13122005870401200693XXXXX204104        912565349BBB     X899THYI390X82               ZMI1URCQ    K6J
113SAE3F 122 0035000002202200000000000004020650XXXXXXX77           0004110629XXXX19722H8EG  29072005O21208200592XXXXX242802        066239438DDD     B5KOSCU5150PG9               HE233X8T    F23
116T6W27 122 0035000002202200000000000002285712XXXXXXX46           0001910637XXXX19902FU5T  12012005N12601200563XXXXX370401        372600684AAA     3D69LSF74395IP               D1K99ZE2    A21
11E22SUO 122 0035000002202200000000000007880950XXXXXXX29           0002943247XXXX19962N9Q4  13122005N10501200674XXXXX506205        973177706BBB     G5O34GEG91836Q               P1BI2QV7    6EC
11M3G3P8 122 0035000002202200000000000007870130XXXXXXX36           0007940390XXXX1966207SM  19012005870502200561XXXXX552803        268521235BBB     I3ACI4N899952A               M06B4BO3    QV7
11R1YBH5 122 0035000002202200000000000001821189XXXXXXX79           0002948563XXXX19942I72T  24052005032905200567XXXXX208306        932219015CCC     0G53VG3T22900W               5IPCE078    X70
11T4NU3V 122 0035000002202200000000000001324652XXXXXXX54           0003284684XXXX19772PVO5  11102005N30511200573XXXXX240904        167348448AAA     ISD7LSN8681920               P1512R02    9Q6
11YKK2WT 122 0035000002202200000000000002187915XXXXXXX85           0008305164XXXX20032IIZ3  130720050R2907200502XXXXX531403        011960627AAA     8J6PJV3E8450Q3               J598OE38    J78
115BMK5Z 122 0035000002202200000000000008715207XXXXXXX53           0008619389XXXX196427ZMX  240420058 1105200502XXXXX532300        548661563EEE     LOCO08G8271JU9               3F85VL3S    73P
11I662RU 122 0035000002202200000000000001729238XXXXXXX44           0002958932XXXX197822CXB  21102005722011200574XXXXX590102        267105738DDD     39ERP2UP888794               2L9111X8    4KT
11H6KQ1K 122 0035000002202200000000000004412378XXXXXXX44           0009157388XXXX198921MLM  18062005860707200564XXXXX144700        422871818EEE     VZWGFSHI7871WU               T357V721    2TA
11LMD102 122 0035000002202200000000000002658335XXXXXXX18           0001021920XXXX19882P5F1  17082005N71309200586XXXXX422001        427440886EEE     791ICV9N4032E4               EIP2JR22    Z37
1109P9WL 122 0035000002202200000000000001112336XXXXXXX45           0008886807XXXX19672X3VI  05112005712111200584XXXXX423905        071779610DDD     GVCQ138F810TWN               6Z31I802    04L
11XBBHT3 122 0035000002202200000000000001708030XXXXXXX35           0006023040XXXX1971241VJ  0109200571040920059 XXXXX553005        597084152CCC     I1EE3M8Z2058Q5               P5H7192H    YCZ
11E964DV 122 0035000002202200000000000009432467XXXXXXX28           0009737355XXXX196825EN2  28082005OR2908200571XXXXX458105        205976183CCC     MLG9VLJY59056Y               81ZRV7BO    IU6
110I4I69 122 0035000002202200000000000007644882XXXXXXX66           0000385214XXXX200626G26  04102005671910200506XXXXX370006        504989936AAA     C62JM7EN651258               JXU98J0J    F2I
11015S2T 122 0035000002202200000000000007179269XXXXXXX15           0003311963XXXX199121Q6Y  20012005030102200584XXXXX329701        454779252AAA     E7B6AB1T42162W               A139IXPP    OI3
112V32J9 122 0035000002202200000000000003369719XXXXXXX67           0002385726XXXX199727DNX  04092005N10909200584XXXXX470302        361628568CCC     ZJC9P3UM194750               G8XH445F    PFX
11XRR1L9 122 0035000002202200000000000000172435XXXXXXX69           0004509442XXXX19792V2T4  05062005O71706200504XXXXX409103        506232259EEE     BNCEB2YM746CB0               FO60VS33    U56
111USL7V 122 0035000002202200000000000004206446XXXXXXX66           0005918271XXXX200421BJJ  28042005N 2605200574XXXXX102804        863126863BBB     RVUTU2M85540N3               U4IDW12W    3DJ
113D528Z 122 0035000002202200000000000005090459XXXXXXX63           0006314655XXXX198628Q91  19112005031412200501XXXXX290002        462259492CCC     IA1W5WAB620SC6               IB3K7824    S14
11R7Q9H7 122 0035000002202200000000000005955842XXXXXXX33           0001309596XXXX20032C6LA  15012005O7130220058 XXXXX539706        441750037EEE     9DYWUP765152H5               9D151XT9    NU3
11H0U07X 122 0035000002202200000000000007242081XXXXXXX19           0004570110XXXX1981238ZC  15072005732907200507XXXXX223503        357638156EEE     32LDYKWJ47153H               C2XP914A    8K7
1167LYF4 122 0035000002202200000000000004200531XXXXXXX89           0008516758XXXX197626QOP  25052005O72406200506XXXXX179205        036903951CCC     L0O02Q7B35400R               3K809C93    OY7
11JF0N3L 122 0035000002202200000000000002147328XXXXXXX83           0001196348XXXX20012H95C  02092005762209200572XXXXX346204        745127498BBB     R3C694DK744249               60B2H127    FOT
1185WJPV 122 0035000002202200000000000002658826XXXXXXX94           0007586437XXXX19892Z6I4  23032005730804200564XXXXX266004        116628444AAA     OEL48CMS7479JV               U3DP9UKH    MVD
11GVC3PD 122 0035000002202200000000000009139484XXXXXXX37           0006212271XXXX20062YJ3N  01062005712806200583XXXXX198700        756659383EEE     4UAQKQTI461841               89T4419M    Z4I
11156DKT 122 0035000002202200000000000006646849XXXXXXX50           0006952499XXXX20012WGU8  03032005N42503200562XXXXX153404        071543769DDD     XHDLAOF35514T2               CJR70500    VJY
113GN7RW 122 0035000002202200000000000004734655XXXXXXX96           0008358998XXXX19752659S  26012005O73101200571XXXXX517406        066431979DDD     B9189N6X461SOU               69BMP392    45X
11GZ4IFH 122 0035000002202200000000000007144037XXXXXXX16           0002214964XXXX19742A1BO  13062005O 2906200503XXXXX130803        047700906AAA     D2K9DVYT342229               WL9H25D2    83O
11931CD5 122 0035000002202200000000000004136743XXXXXXX82           0008340765XXXX199428A1A  06022005N21402200583XXXXX110806        584082565BBB     9YTC0QOJ685Q88               64TB6A65    5WX
11054YYO 122 0035000002202200000000000009673336XXXXXXX66           0002703271XXXX1990297UC  13122005730101200687XXXXX489806        491790030AAA     4YPXXIPI407576               FDTL4V29    0MC
11YEUB53 122 0035000002202200000000000002932665XXXXXXX43           0009027398XXXX199423VZA  1902200577280220058 XXXXX485704        902546105AAA     99AD99D3368882               G4NL08TA    4X4
119U27B8 122 0035000002202200000000000004248125XXXXXXX98           0008611418XXXX19792N9C5  15042005872904200502XXXXX249603        605946342CCC     32PJVQTF8674FA               44RMQ878    1O3
11L5XC6B 122 0035000002202200000000000008576585XXXXXXX73           0008018384XXXX19702K91P  221220050R3012200573XXXXX392802        590641283AAA     0OE67EDI425V98               5564KW64    3V8
11I64P6M 122 0035000002202200000000000009831887XXXXXXX81           0005945448XXXX20002ZAPK  16062005N40807200502XXXXX464706        492351412AAA     O9YDGW4A1109Q7               9K7265L2    8MC
116425SR 122 0035000002202200000000000002762406XXXXXXX26           0003138286XXXX2000266XA  05062005641406200593XXXXX134105        697441008AAA     1OX90LWD777LH6               2MSSWGK8    U4Q
111ZV465 122 0035000002202200000000000007987303XXXXXXX86           0001305655XXXX198629032  22012005861302200574XXXXX107403        779199692BBB     J45RJC32817MI1               835Z7778    6R6
11L13XTB 122 0035000002202200000000000007661561XXXXXXX16           0007648086XXXX19792SIBY  26032005831504200582XXXXX172805        660423442AAA     F1Z1OFBG396WZ2               GFV36351    M7Q
1159X0K8 122 0035000002202200000000000008922160XXXXXXX20           0006189732XXXX19942SEM8  20102005771111200571XXXXX243201        434940863EEE     1TCDDCGS944786               5H62PR9J    2XQ
11J5WIEK 122 0035000002202200000000000008838242XXXXXXX45           0004470967XXXX19672INDH  19032005O61604200592XXXXX205205        849748549AAA     Q0T7V8F047237H               0VI98341    64P
1138EQA5 122 0035000002202200000000000001218662XXXXXXX20           0001145171XXXX1977220DY  22102005611411200562XXXXX375706        559932030BBB     2KQMQ8CO090F30               YN4R1P56    UCP
11LS3XE3 122 0035000002202200000000000001302875XXXXXXX22           0006940104XXXX198520KI4  1903200563220320059 XXXXX556006        444720410AAA     ZN7QYT5Q400P6T               923GD777    M5J
11OQ9UCV 122 0035000002202200000000000001726502XXXXXXX38           0003599315XXXX196924OGN  17052005032405200561XXXXX294302        475124417AAA     V41TXMEG241562               82R16K8B    J6M
110762O5 122 0035000002202200000000000000633303XXXXXXX76           0008016938XXXX19882F8U7  29052005O32606200587XXXXX482701        617411900EEE     1TFNU94Y5895IF               VP557892    TA1
1193QLUW 122 0035000002202200000000000002013860XXXXXXX81           0008310816XXXX19642P875  12042005N72904200586XXXXX378803        526633504BBB     B12Z98KU67641A               052A08ZM    1FQ
11PI3QV0 122 0035000002202200000000000002773674XXXXXXX89           0002091544XXXX19692U905  22092005642809200501XXXXX298803        787268841AAA     35923YV84765L5               591VB169    AWD
11JOKXU6 122 0035000002202200000000000000500484XXXXXXX93           0000693726XXXX196723PGQ  13122005042812200504XXXXX538704        272061726BBB     2WURH4DM329P12               1B63R706    75L
11Q661UN 122 0035000002202200000000000002697540XXXXXXX57           0001787613XXXX19712K538  0603200502290320058 XXXXX193500        405964706BBB     6ZT8TELC269E5N               1RJ395G4    5PC
117VC7RK 122 0035000002202200000000000004249845XXXXXXX83           0008951420XXXX198828KXV  20102006070911200606XXXXX192502        075694398AAA     MUEBQG1Z10729R               QVVO116A    NI6
1139POO2 122 0035000002202200000000000006686128XXXXXXX34           0000350256XXXX1989278KH  02032006843003200667XXXXX475404        138823379CCC     J6PBXMSX2972KW               RN6VG063    9N5
1125G89C 122 0035000002202200000000000006552477XXXXXXX62           0000068237XXXX199624UCV  150720067R1807200693XXXXX169401        591907891CCC     PY9OVXKU12013I               2843Z865    X6T
118Z04OW 122 0035000002202200000000000007513129XXXXXXX42           0009998721XXXX20022J1E9  28062006733006200681XXXXX212906        356738012EEE     V0DWYGKV366409               8R66M2H4    28L
112859V4 122 0035000002202200000000000002637707XXXXXXX06           0002656913XXXX19732C0T6  241220067R2912200603XXXXX599902        525459119CCC     RGYV0E8T417652               0KG971TK    9S3
112346AH 122 0035000002202200000000000007593569XXXXXXX33           0004712132XXXX20042MFR0  07012006061601200606XXXXX575005        763061376CCC     ZPP4QTXL004D5M               1ZJJ4927    KM3
11KMYE82 122 0035000002202200000000000008990789XXXXXXX60           0005197446XXXX2002282O1  2505200681020620069 XXXXX121006        358074020CCC     RNJW09BO331M32               9X42I5OG    096
11A655RH 122 0035000002202200000000000002919781XXXXXXX29           0003267093XXXX20012QWDR  21042006633004200674XXXXX277204        846486314EEE     L4D7Z6VZ377N7Y               G6GRMJ1B    567
119WNZ32 122 0035000002202200000000000004964826XXXXXXX14           0001197517XXXX19722B07D  11122006O22512200681XXXXX322500        928901846AAA     L5MX11ZM191C2S               O1Q986Q1    2NP
1183BL6M 122 0035000002202200000000000005316471XXXXXXX05           0008922435XXXX199222J3D  26092006711510200601XXXXX172403        403894782BBB     8IVU90KE7598HH               E0Y87Q08    N5H
11OORX82 122 0035000002202200000000000003065344XXXXXXX39           0007968732XXXX199622V5H  03062006O20406200666XXXXX397205        661999767AAA     A6KNZLJN4985ET               801L18H4    ISQ
118U23EW 122 0035000002202200000000000007122540XXXXXXX13           0008280600XXXX20052BJ6Z  19012006N21702200671XXXXX269502        941021856BBB     YPXWHFS3506029               2EB11203    RQX
114KHLM8 122 0035000002202200000000000005337547XXXXXXX46           0002352132XXXX19742H7K1  090420067R2604200607XXXXX461900        020688899AAA     V68OGP3M23628I               URGTPG84    MQ3
111E3906 122 0035000002202200000000000000686811XXXXXXX21           0008665287XXXX197822DLX  02082006N41508200607XXXXX262602        491027758EEE     23CUZ3U3572XD9               2Z1OK560    G4T
111D3715 122 0035000002202200000000000003583020XXXXXXX02           0000562073XXXX199427N8J  010520068 0605200601XXXXX431500        273006930EEE     HM30JOO05522D1               5G719R44    T3Q
117JNHDQ 122 0035000002202200000000000006867597XXXXXXX06           0005599285XXXX196726LVO  270920068R2610200606XXXXX206603        536760176BBB     779TO7B02187DR               1P56W87T    KK5
11Y847A0 122 0035000002202200000000000006635573XXXXXXX08           0006687454XXXX198622HWI  09112006762611200682XXXXX530904        912750415CCC     8FR25CMN560CXK               25W83950    S52
11R82BZP 122 0035000002202200000000000006234842XXXXXXX51           0005461804XXXX199324TCD  200420067R2104200661XXXXX333103        591405429BBB     A4LXTKZT116M94               20G425T5    FM1
1123IK32 122 0035000002202200000000000004559755XXXXXXX52           0002389113XXXX198629P8Q  16122006N22012200603XXXXX586902        990149936CCC     VDQ85SHO006AD5               5302T31K    L8F
112V9RWY 122 0035000002202200000000000003122353XXXXXXX73           0005576158XXXX20012VN42  170320068 0704200667XXXXX461704        308778478BBB     UJ25NHSW40191M               756P14KL    19S
115GSNO7 122 0035000002202200000000000004044918XXXXXXX48           0000251408XXXX19732R04B  04082006072408200667XXXXX267306        508381616AAA     091H0PMI6800CV               466717I3    T5J
11HMJ4RR 122 0035000002202200000000000003065099XXXXXXX25           0004270382XXXX19872DY3J  17112006812111200662XXXXX294002        295524049DDD     OC7IDHEL2261K5               D7V43C43    9L8
114LAUB6 122 0035000002202200000000000004467345XXXXXXX22           0006413967XXXX1972276IF  21022006841703200677XXXXX481702        088310044BBB     20JR9TD3799855               G40JV498    C82
1187N7H5 122 0035000002202200000000000008333256XXXXXXX10           0001827131XXXX19722PMJK  24012006872302200662XXXXX313703        880271692DDD     B84KITAU331V8F               SOZ0L9IQ    OKG
110FLKP0 122 0035000002202200000000000003612105XXXXXXX02           0004381706XXXX198226OMX  18082006O 0509200604XXXXX461705        841070528CCC     9698588K368GE0               T347IS2Z    U72
118958VK 122 0035000002202200000000000003029189XXXXXXX31           0005145522XXXX19902XSP3  25092006012210200697XXXXX558005        956384021CCC     QRILNQFB762UV5               S06CT585    ZB7
118QB2JU 122 0035000002202200000000000000762588XXXXXXX51           0006764107XXXX199721BH0  21072006060108200672XXXXX566301        297873054EEE     IV59GVN7225K25               60BNX904    M58
1175CYNU 122 0035000002202200000000000004546599XXXXXXX37           0000837044XXXX196828M75  14012006N20402200667XXXXX216800        572291471EEE     50K3ZHIS136098               ZU6233K1    0U6
11R853UO 122 0035000002202200000000000002394807XXXXXXX31           0001070640XXXX19742UO80  29062006731507200674XXXXX584106        598574900AAA     1ZCD6B3W1071VK               D54T7TR5    CD5
11FW5DV6 122 0035000002202200000000000003556434XXXXXXX60           0009838367XXXX19992X09F  300320060R2304200671XXXXX306905        103714461AAA     XODIATCJ986XA5               LZ58FM1V    FSX
11963KD9 122 0035000002202200000000000005931226XXXXXXX39           0008265424XXXX200526SQM  04092006832709200664XXXXX497203        269177472EEE     XAXT6GOI296833               QNE932K1    2JV
11H4H0V7 122 0035000002202200000000000007847642XXXXXXX51           0000980398XXXX19832AK8Q  09082006N11608200671XXXXX472504        505967625AAA     LH605DGW9629NN               G527T1LA    89C
11523549 122 0035000002202200000000000007029156XXXXXXX59           0000039889XXXX19752H88A  251120067R0512200603XXXXX128906        816400402AAA     H9D1UNHM6288B2               WP86VL65    OE9
115A2MS1 122 0035000002202200000000000005854483XXXXXXX84           0000895695XXXX19792Y0ZK  071120068 2911200662XXXXX216105        516696415DDD     F7DOSL8I389995               M1X5OOAA    5JG
11K04O32 122 0035000002202200000000000003471761XXXXXXX50           0008062157XXXX20052K315  2810200683021120069 XXXXX268303        728289912DDD     KN9ESRAB719XE5               CM5CBRM5    5GX
114QA35W 122 0035000002202200000000000009156519XXXXXXX29           0006778018XXXX197727KOI  25062006822706200662XXXXX408505        012423083BBB     T8XWHAPB817705               H599T5J6    PT7
11AV6GYW 122 0035000002202200000000000004952817XXXXXXX53           0003110760XXXX19752M32I  19112006741112200673XXXXX408404        069913319DDD     36KN3M6473327O               E6UPD690    KG0
1162S386 122 0035000002202200000000000005298588XXXXXXX18           0006705829XXXX19732C8R3  23062006632406200697XXXXX255501        320995394CCC     D65E4M683460AS               1NN11249    634
11IS89EC 122 0035000002202200000000000000632235XXXXXXX11           0001582566XXXX197227UPR  15052006012405200674XXXXX513806        662455560AAA     LV1HUCNI375929               9E3QOQ0F    VE3
11E1Y75A 122 0035000002202200000000000006599152XXXXXXX77           0001196917XXXX2005260EQ  06032006O2280320068 XXXXX573902        286194242AAA     5Y9C40XW255570               H47H849F    530
11D2U1C6 122 0035000002202200000000000003511922XXXXXXX00           0006018117XXXX198128T5Y  08092006861909200691XXXXX226300        750856370BBB     15CH9QSE919PM6               QFK02134    A9K
11WO5ZZY 122 0035000002202200000000000008120591XXXXXXX56           0000587073XXXX19742606V  29112006O61112200661XXXXX304204        749409970DDD     R52EO89E372CST               E6PC0Y7T    7NP
1101IPKM 122 0035000002202200000000000007774873XXXXXXX23           0009514568XXXX1990205OF  25012006642302200603XXXXX388303        289604962BBB     C5BYLLUU7248KI               12NE9A88    194
11401S2Y 122 0035000002202200000000000007374511XXXXXXX96           0000392059XXXX19912EU46  05062006632706200684XXXXX202002        461385733DDD     76UNDRHZ468AKM               X7J7ZH2D    A2M
118U02NL 122 0035000002202200000000000009416694XXXXXXX06           0004343268XXXX19752EJ5J  04082006832208200672XXXXX253501        955078989DDD     SP3BPDUM069JFI               O43P7C9J    39T
11F0TGH8 122 0035000002202200000000000009342049XXXXXXX34           0003426364XXXX196924CT9  09022006811702200682XXXXX238504        711332070BBB     OABI0MS022861Y               LY975LXB    8CY
117L121Y 122 0035000002202200000000000004987705XXXXXXX83           0000206491XXXX19892A3NZ  22102006NR1811200697XXXXX193804        768971682DDD     48NKEQDE02051B               15Z68697    X09
114D8FJM 122 0035000002202200000000000000977053XXXXXXX53           0008986910XXXX19752505H  02012006710401200666XXXXX337004        924884310CCC     0QNR8AXB822KM2               3QU982BC    8SY
11SVO8BM 122 0035000002202200000000000005660706XXXXXXX93           0007373300XXXX19982O39S  280720067R3107200672XXXXX505404        428109773EEE     UWIMIFU22955U7               C70PH9L6    W7C
11M510W2 122 0035000002202200000000000002029827XXXXXXX29           0006305054XXXX19822G1SU  02022006O22302200662XXXXX277801        824841291AAA     185CTUVM487A61               7R447178    7DC
11RTHTI6 122 0035000002202200000000000008936597XXXXXXX36           0006224221XXXX19842321W  18082006022708200692XXXXX405004        419162309DDD     XWBLL1PM506MX8               F91YBO2J    3BV
11D1L012 122 0035000002202200000000000004362026XXXXXXX51           0007361061XXXX198124BR6  14072006030708200601XXXXX253201        901655251EEE     09VIX2QL870V4K               SX617LV1    L39
11O42VWP 122 0035000002202200000000000005253100XXXXXXX04           0006245400XXXX19832WWZ5  02102006721310200686XXXXX131306        610982820DDD     ZKEGN55W1296FH               46P01C3I    23Q
119MWPM6 122 0035000002202200000000000009185880XXXXXXX40           0007075995XXXX20052F1ZB  13102006N12310200672XXXXX412502        471636376DDD     7G6L39ZI485027               1OHQQ56U    9GY
113EH1TI 122 0035000002202200000000000001597611XXXXXXX80           0002655425XXXX19662QKM5  22082006N31209200694XXXXX457103        061841271DDD     NP893J4F4204RG               385B53U7    5O7
113RL8NZ 122 0035000002202200000000000006224286XXXXXXX61           0006003366XXXX197329WBE  25042006841805200607XXXXX196005        065406127AAA     LNWY20JP944F99               4274992C    8A0
116917QQ 122 0035000002202200000000000000599480XXXXXXX56           0005629258XXXX19782I4GZ  29032006721604200662XXXXX255805        528260196AAA     X0D5PMNQ336282               J91S0Q0F    W08
11429P01 122 0035000002202200000000000003185118XXXXXXX07           0003427105XXXX19662D216  15062006642606200691XXXXX236206        871940149AAA     RAL8QNNH332268               741T962W    6J8
11Z95L0X 122 0035000002202200000000000006496180XXXXXXX61           0002394608XXXX19802L93X  17052006NR0306200674XXXXX296702        238604752DDD     Z0D59I682677AL               8M8Y6324    6WW
11BF7R6H 122 0035000002202200000000000000850362XXXXXXX83           0008308351XXXX19902QW8O  08112006O41911200672XXXXX249201        482588309DDD     C6XQG4713769V6               95AK3DRT    1PB
11G7QUQ5 122 0035000002202200000000000007216964XXXXXXX66           0002732980XXXX19702QQMY  29092006632010200672XXXXX297505        622518104CCC     DCYFXEZC6772FG               E7XFP702    C7K
111V7N79 122 0035000002202200000000000008868246XXXXXXX06           0000789369XXXX19772Z21S  07072006731607200696XXXXX536000        363165335EEE     W1LJOK4H548F95               L57951P8    N7H
11G8F45F 122 0035000002202200000000000009426816XXXXXXX87           0002543752XXXX19722TJ61  23012006670102200687XXXXX139602        092454438DDD     23FN5U2W778915               D5AJ3YR5    56I
113P14A4 122 0035000002202200000000000003960450XXXXXXX32           0007647732XXXX19652L3G0  20012006770902200602XXXXX395000        708525532AAA     0ZZ4LYFY179JRN               75K9A5YF    L4Z
11B86JIA 122 0035000002202200000000000008453368XXXXXXX09           0007718988XXXX19732H58F  24082006823008200673XXXXX587304        014940253DDD     7U9T4Z3O114D9E               RNH8N40A    D66
11Q6O968 122 0035000002202200000000000002108354XXXXXXX69           0002421910XXXX19762TM32  03102006NR2810200666XXXXX265301        611166483AAA     FP21OUMH8242CK               BI3TBAU1    N1L
11I363VQ 122 0035000002202200000000000000569625XXXXXXX59           0006101949XXXX19702M164  25042006640905200673XXXXX569506        986227764AAA     GR28VE2P626HB9               1695K222    3NH
115LH32D 122 0035000002202200000000000001466632XXXXXXX26           0001809258XXXX19892867J  26122006771201200771XXXXX284404        388761541AAA     T2YJQ986363245               630L283J    6DV
11718EJ9 122 0035000002202200000000000000819297XXXXXXX42           0002457554XXXX197523GTR  0809200673240920068 XXXXX520304        469231601CCC     DNUH13V5977494               W6964E1B    LH8
11V028Z3 122 0035000002202200000000000004146308XXXXXXX92           0006335057XXXX199028YGD  11052006612805200664XXXXX246005        243434148EEE     6ANCQK0C513U8Y               RK9F2625    OG0
11QBVAV7 122 0035000002202200000000000006505147XXXXXXX58           0007212354XXXX19892C6O9  02082006O23108200681XXXXX589004        807701172EEE     XAJVAP95196434               B9YS173I    6I8
1143SOA6 122 0035000002202200000000000006666105XXXXXXX63           0000422633XXXX19952ZKB5  08062006010507200671XXXXX235300        511714449DDD     2VS9AUGC377E63               MAQLO38K    55J
11256X54 122 0035000002202200000000000008867946XXXXXXX45           0009512348XXXX19942CLSQ  25102006712610200697XXXXX532006        416299621EEE     9B2806I6590992               445370UV    B1M
115B34QG 122 0035000002202200000000000006294390XXXXXXX78           0001909870XXXX19782Q5UT  09092006761309200696XXXXX168702        948427151AAA     KYZ2GZYL0091KJ               SW49Z815    R8N
116G502N 122 0035000002202200000000000007925993XXXXXXX77           0008279147XXXX19842T6M6  12062006N32006200602XXXXX326401        150600268BBB     NJA4WC581864HS               98049M5R    C9F
118TG8WT 122 0035000002202200000000000002264479XXXXXXX24           0008793704XXXX19682763T  02082006O73108200684XXXXX234900        620951137AAA     56R0AYAN538G75               075C888J    338
117U3LOE 122 0035000002202200000000000000065621XXXXXXX41           0006262926XXXX19922581S  070320066R2003200684XXXXX563603        023633410AAA     J4V92L91651B69               I52O1DT9    W9V
11E7P242 122 0035000002202200000000000000813035XXXXXXX32           0006831910XXXX19922D114  070120068R0302200662XXXXX394705        870490487EEE     1LQWLY9Y0091MQ               E913GH6M    143
11WE57IR 122 0035000002202200000000000009345514XXXXXXX38           0003209188XXXX1997210M3  31012006062802200677XXXXX220201        802034977EEE     BNCCNN57154298               865349FB    Q37
11I2YUTM 122 0035000002202200000000000005831739XXXXXXX25           0004920005XXXX1974239E9  15012006072001200673XXXXX298405        271649344CCC     TCZ0ZHIE5285JT               O3670HVD    CS2
11NO3V1Z 122 0035000002202200000000000000121630XXXXXXX35           0004587424XXXX199328B9Y  22042006632504200671XXXXX218402        241282078AAA     F451JTF450838X               5992G1X0    P76
112T0X7Q 122 0035000002202200000000000003211574XXXXXXX42           0000259450XXXX20002364T  30052006010506200694XXXXX592106        204956827DDD     V2HC2R7L59302O               Q91H2HX4    MC8
111MRR94 122 0035000002202200000000000008749917XXXXXXX16           0004383037XXXX1988262MB  01012006NR2901200604XXXXX499501        758522219BBB     30UFGQUX1036Q1               4X8O7953    ZAD
11NG9DOZ 122 0035000002202200000000000004135254XXXXXXX23           0006086186XXXX19842T2EO  30082006720809200601XXXXX231700        623780837CCC     G2T2WDL9027TS4               6VGH9V61    2RE
113F4E4D 122 0035000002202200000000000007914411XXXXXXX81           0008079988XXXX19962DH09  18062006740807200607XXXXX134901        917525772BBB     EAIXK7MQ153RN2               79K798KZ    NF1
11ZB4ALN 122 0035000002202200000000000002676521XXXXXXX41           0009871017XXXX19672S3SA  26082006N13008200676XXXXX202604        737338837EEE     66BDNK241805BL               TRURJ6V2    W95
1125C6FY 122 0035000002202200000000000009762165XXXXXXX93           0002656767XXXX19962QZ91  11032006013003200666XXXXX112104        863376004CCC     93HW8QAC729203               2077WV66    5FL
11DZRRU5 122 0035000002202200000000000005427967XXXXXXX43           0005233129XXXX20022G87Q  25092006N42809200697XXXXX501603        843639329BBB     Q2XV7BOQ630V0T               QZ5D788A    O5U
11248FX4 122 0035000002202200000000000006219004XXXXXXX28           0001485121XXXX197222O29  29122006732001200794XXXXX243306        086696691CCC     T8PITE3J4809D1               479J48C6    QC3
118CK29M 122 0035000002202200000000000006984637XXXXXXX05           0005173359XXXX197324KCJ  02072006721007200666XXXXX329303        162173978DDD     H8D71ZI6559E23               4T1JYNGP    EK4
11O2Z80W 122 0035000002202200000000000009418483XXXXXXX33           0008750240XXXX1971292IA  13042006020705200676XXXXX290605        136726460EEE     46ZF3PWJ0064N6               91IK6XB6    3VU
110PJ9L3 122 0035000002202200000000000002547479XXXXXXX73           0005962244XXXX19812AP0J  13112006721112200671XXXXX239305        675276501EEE     KH5OA78S224715               60SE80GT    4OP
11UH3335 122 0035000002202200000000000002166135XXXXXXX34           0000318686XXXX19832N1MH  22102006N22910200673XXXXX137105        716993837AAA     4LJSUW7U974QGK               4D86971B    5HL
11YHRE1F 122 0035000002202200000000000006645508XXXXXXX68           0008743763XXXX20032JJAS  04012006843101200691XXXXX337300        304187930BBB     PBXRD66P812I62               84UHW086    F2A
112LEOA3 122 0035000002202200000000000003167945XXXXXXX10           0001131634XXXX199123QU4  16032006630104200673XXXXX198200        219600433AAA     35MQCESK319YB6               1N5SA0J0    5DT
1105UR8E 122 0035000002202200000000000006100913XXXXXXX98           0000825875XXXX19642Y10A  30042006831005200666XXXXX589401        371358872CCC     63A5X48Q4679R6               31EW6U46    JZ2
1130G7PI 122 0035000002202200000000000005617702XXXXXXX21           0000970370XXXX19972T1KN  11032006031903200687XXXXX531500        325805539AAA     XHGQAIX8538638               RC0GK9QM    50G
11L4B52C 122 0035000002202200000000000000837368XXXXXXX59           0007244516XXXX19722LE5R  15062006820107200664XXXXX507900        664418400CCC     GJAJWGKI8382F0               PTS955KV    77B
112VGX5R 122 0035000002202200000000000006423715XXXXXXX42           0000777152XXXX196423I8X  18012006012301200671XXXXX422602        745190676EEE     0XGQXYDQ561E67               GEA3RX31    B56
119WX67V 122 0035000002202200000000000001830726XXXXXXX13           0003591000XXXX19952764N  0206200664240620069 XXXXX146301        268295058EEE     RAGSD1CT0576V9               ZUTW2391    I5X
11C9DU1N 122 0035000002202200000000000009223500XXXXXXX36           0004749211XXXX19872Q68Y  08072006730508200664XXXXX188703        879565260DDD     J79Y611W735TF5               6N35MK7L    8BU
11NXNFK8 122 0035000002202200000000000006322816XXXXXXX85           0000189278XXXX196521YKW  310520066R0306200687XXXXX164501        602115143DDD     VXL3G5DI215WQO               9TRL8XW3    94D
11M6H07B 122 0035000002202200000000000002182827XXXXXXX75           0003027300XXXX199723TKI  03042006610504200672XXXXX515506        785676456CCC     U6JZCAF3478577               3K7KF949    8XG
11SY0CQW 122 0035000002202200000000000009385647XXXXXXX30           0009462462XXXX199128BIZ  19052006040506200692XXXXX321201        877855846AAA     ESKJF7VP156L74               SHY68GUO    7E9
118FC9FR 122 0035000002202200000000000005995236XXXXXXX15           0009259352XXXX19882CI1S  12082006N 2408200673XXXXX557000        315349299BBB     UOOTNQA9698ZY6               083Z1876    2QC
11DD94PC 122 0035000002202200000000000000524839XXXXXXX54           0003570820XXXX198723JMN  23072006O61208200697XXXXX163202        332494395BBB     E450GOYQ886R7C               3JEAG182    4V1
11XW4QF6 122 0035000002202200000000000008869769XXXXXXX74           0008925880XXXX200623E3P  15042006671604200664XXXXX224004        769676448EEE     ZT1ODLLU5922JE               379XC674    3TH
11T251GP 122 0035000002202200000000000005932291XXXXXXX20           0002899355XXXX1971254I5  25102006022011200604XXXXX349805        726941939CCC     64C62Z2V861KC0               S3524M6Q    NY0
117H735J 122 0035000002202200000000000001280990XXXXXXX23           0009128059XXXX19892SD0D  16102006670611200667XXXXX529806        057227682EEE     J9BP4Q9I452PP6               82XTGHZ6    VT7
110WYQP0 122 0035000002202200000000000007934829XXXXXXX91           0007766765XXXX19732X8M4  31122006032901200771XXXXX408204        747585938AAA     QSV7B56Y130UL6               5D8W3C86    O7T
11CLBK26 122 0035000002202200000000000005713719XXXXXXX09           0004837717XXXX200129QSD  03102006O71510200692XXXXX579304        163798744EEE     BI3NZKU038236V               SU2E842C    MVN
11EWNTRB 122 0035000002202200000000000008589975XXXXXXX34           0007494369XXXX199922ETQ  22112006761112200666XXXXX229506        612551434BBB     BWF6RYGJ505FD0               5BEW03Y9    8RU
11R1F0D6 122 0035000002202200000000000001239526XXXXXXX55           0001252824XXXX1978273W9  29102006O71911200684XXXXX585805        669691835BBB     BR09GZ5I346701               82N8G175    A84
112K1MV5 122 0035000002202200000000000009197110XXXXXXX38           0001153989XXXX19722Q22I  09112006661611200696XXXXX349502        531951289BBB     6LIUQ91T5418HW               61D9L820    H57
117W9QBA 122 0035000002202200000000000001561683XXXXXXX68           0009418308XXXX19702E6ZA  160620068 2206200676XXXXX246105        824708815CCC     2GJ5H2VV530609               928ZZAHU    7X9
11GHO4BG 122 0035000002202200000000000000330999XXXXXXX94           0009817107XXXX197921HE0  24102006731311200683XXXXX533103        584389398EEE     C08SPJ7Z0616FE               5AP82NA7    E9J
112I2RST 122 0035000002202200000000000000014101XXXXXXX54           0000354443XXXX197228A8S  14082006O3300820069 XXXXX469006        056883503CCC     ZIK87POP76120L               IDTM90Z7    38I
11S5IC8R 122 0035000002202200000000000007792975XXXXXXX80           0006074535XXXX199924RTD  15112006730912200663XXXXX211003        081025346EEE     Z12JMVME61757P               2C39R04A    9QY
11RKGTK3 122 0035000002202200000000000009057108XXXXXXX22           0004642236XXXX19922U6QR  31122006821601200792XXXXX279206        027516682EEE     RVNDPVWP378Q8G               VJTX7C73    WO1
11TZM3B9 122 0035000002202200000000000008688097XXXXXXX69           0000198353XXXX19862YW7O  260120066R0902200667XXXXX398302        413593257DDD     J3GR9PKZ54278T               5H8277AP    0UG
110G5SQS 122 0035000002202200000000000009128656XXXXXXX61           0004140508XXXX197520RN4  25032006631304200606XXXXX242001        943705720CCC     2Y4D39MU190XFO               HG92R798    52M
116Z4I2S 122 0035000002202200000000000007901025XXXXXXX06           0001384105XXXX198825538  180920068R0310200663XXXXX340602        882714964EEE     APN7E686255NXV               15G45VDY    K35
11595B6N 122 0035000002202200000000000006158456XXXXXXX59           0008244250XXXX19922W9PP  131120066R1911200693XXXXX250501        705462290DDD     KXNDL6ZU501342               DWA193UH    77C
11Q44JF5 122 0035000002202200000000000005630251XXXXXXX80           0001776637XXXX19822DM6Z  05032006N41503200661XXXXX479701        592853450EEE     B3C9C5LW905Q1H               G280R60E    6MP
11UXT0KJ 122 0035000002202200000000000005324013XXXXXXX44           0001657337XXXX20052LG5P  240120067R2601200673XXXXX204502        394450176EEE     C16UJ5CP572D63               389506PJ    03L
1195PQ1E 122 0035000002202200000000000006252807XXXXXXX21           0007164021XXXX20022E8K6  23092006860310200692XXXXX227406        716654773EEE     A0S2GY3P0537U2               7F437864    N0G
11W26II9 122 0035000002202200000000000001237724XXXXXXX85           0009854619XXXX19962TJJV  03082006612108200683XXXXX299700        601764011DDD     P1SFN0IF538A75               GTXL8783    0J3
